{
  "contractName": "SChainData",
  "abi": [
    {
      "anonymous": false,
      "inputs": [
        {
          "indexed": false,
          "internalType": "address",
          "name": "retailer",
          "type": "address"
        },
        {
          "indexed": false,
          "internalType": "string",
          "name": "chainId",
          "type": "string"
        },
        {
          "indexed": false,
          "internalType": "string",
          "name": "productId",
          "type": "string"
        },
        {
          "indexed": false,
          "internalType": "uint256",
          "name": "timestamp",
          "type": "uint256"
        }
      ],
      "name": "ProductCooked",
      "type": "event"
    },
    {
      "anonymous": false,
      "inputs": [
        {
          "indexed": false,
          "internalType": "address",
          "name": "distributor",
          "type": "address"
        },
        {
          "indexed": false,
          "internalType": "address",
          "name": "destinator",
          "type": "address"
        },
        {
          "indexed": false,
          "internalType": "string",
          "name": "chainId",
          "type": "string"
        },
        {
          "indexed": false,
          "internalType": "uint256",
          "name": "timestamp",
          "type": "uint256"
        }
      ],
      "name": "ProductDistributed",
      "type": "event"
    },
    {
      "anonymous": false,
      "inputs": [
        {
          "indexed": false,
          "internalType": "address",
          "name": "farmer",
          "type": "address"
        },
        {
          "indexed": false,
          "internalType": "string",
          "name": "chainId",
          "type": "string"
        },
        {
          "indexed": false,
          "internalType": "uint256",
          "name": "timestamp",
          "type": "uint256"
        }
      ],
      "name": "ProductRegistered",
      "type": "event"
    },
    {
      "anonymous": false,
      "inputs": [
        {
          "indexed": false,
          "internalType": "address",
          "name": "transporter",
          "type": "address"
        },
        {
          "indexed": false,
          "internalType": "address",
          "name": "destinator",
          "type": "address"
        },
        {
          "indexed": false,
          "internalType": "string",
          "name": "chainId",
          "type": "string"
        },
        {
          "indexed": false,
          "internalType": "uint256",
          "name": "timestamp",
          "type": "uint256"
        }
      ],
      "name": "ProductTransported",
      "type": "event"
    },
    {
      "inputs": [
        {
          "internalType": "string",
          "name": "",
          "type": "string"
        },
        {
          "internalType": "uint256",
          "name": "",
          "type": "uint256"
        }
      ],
      "name": "chainProductIds",
      "outputs": [
        {
          "internalType": "string",
          "name": "",
          "type": "string"
        }
      ],
      "stateMutability": "view",
      "type": "function",
      "constant": true
    },
    {
      "inputs": [
        {
          "internalType": "string",
          "name": "",
          "type": "string"
        },
        {
          "internalType": "uint256",
          "name": "",
          "type": "uint256"
        }
      ],
      "name": "chains",
      "outputs": [
        {
          "internalType": "string",
          "name": "productName",
          "type": "string"
        },
        {
          "internalType": "string",
          "name": "productType",
          "type": "string"
        },
        {
          "internalType": "string",
          "name": "productCategory",
          "type": "string"
        },
        {
          "internalType": "uint256",
          "name": "harvestingTime",
          "type": "uint256"
        },
        {
          "internalType": "uint256",
          "name": "packagingTime",
          "type": "uint256"
        },
        {
          "internalType": "uint256",
          "name": "departureTime",
          "type": "uint256"
        },
        {
          "internalType": "uint256",
          "name": "receivingTime",
          "type": "uint256"
        },
        {
          "internalType": "uint256",
          "name": "cookedTime",
          "type": "uint256"
        },
        {
          "internalType": "address",
          "name": "stakeholderAddress",
          "type": "address"
        },
        {
          "internalType": "address",
          "name": "transporterAddress",
          "type": "address"
        },
        {
          "internalType": "address",
          "name": "receiverAddress",
          "type": "address"
        }
      ],
      "stateMutability": "view",
      "type": "function",
      "constant": true
    },
    {
      "inputs": [
        {
          "internalType": "uint256",
          "name": "",
          "type": "uint256"
        }
      ],
      "name": "distributors",
      "outputs": [
        {
          "internalType": "address",
          "name": "",
          "type": "address"
        }
      ],
      "stateMutability": "view",
      "type": "function",
      "constant": true
    },
    {
      "inputs": [
        {
          "internalType": "uint256",
          "name": "",
          "type": "uint256"
        }
      ],
      "name": "farmers",
      "outputs": [
        {
          "internalType": "address",
          "name": "",
          "type": "address"
        }
      ],
      "stateMutability": "view",
      "type": "function",
      "constant": true
    },
    {
      "inputs": [
        {
          "internalType": "uint256",
          "name": "",
          "type": "uint256"
        }
      ],
      "name": "listOfChainIds",
      "outputs": [
        {
          "internalType": "string",
          "name": "",
          "type": "string"
        }
      ],
      "stateMutability": "view",
      "type": "function",
      "constant": true
    },
    {
      "inputs": [],
      "name": "numberOfChains",
      "outputs": [
        {
          "internalType": "uint256",
          "name": "",
          "type": "uint256"
        }
      ],
      "stateMutability": "view",
      "type": "function",
      "constant": true
    },
    {
      "inputs": [
        {
          "internalType": "address",
          "name": "",
          "type": "address"
        }
      ],
      "name": "partners",
      "outputs": [
        {
          "internalType": "uint256",
          "name": "id",
          "type": "uint256"
        },
        {
          "internalType": "uint256",
          "name": "categoryId",
          "type": "uint256"
        },
        {
          "internalType": "string",
          "name": "category",
          "type": "string"
        },
        {
          "internalType": "string",
          "name": "name",
          "type": "string"
        },
        {
          "internalType": "string",
          "name": "location",
          "type": "string"
        },
        {
          "internalType": "string",
          "name": "url",
          "type": "string"
        },
        {
          "internalType": "string",
          "name": "email",
          "type": "string"
        },
        {
          "internalType": "uint256",
          "name": "phoneNumber",
          "type": "uint256"
        },
        {
          "internalType": "address",
          "name": "partnerAddress",
          "type": "address"
        },
        {
          "internalType": "bool",
          "name": "isPartner",
          "type": "bool"
        }
      ],
      "stateMutability": "view",
      "type": "function",
      "constant": true
    },
    {
      "inputs": [
        {
          "internalType": "uint256",
          "name": "",
          "type": "uint256"
        }
      ],
      "name": "retailers",
      "outputs": [
        {
          "internalType": "address",
          "name": "",
          "type": "address"
        }
      ],
      "stateMutability": "view",
      "type": "function",
      "constant": true
    },
    {
      "inputs": [
        {
          "internalType": "uint256",
          "name": "",
          "type": "uint256"
        }
      ],
      "name": "transporters",
      "outputs": [
        {
          "internalType": "address",
          "name": "",
          "type": "address"
        }
      ],
      "stateMutability": "view",
      "type": "function",
      "constant": true
    },
    {
      "inputs": [
        {
          "internalType": "address",
          "name": "_partnerAddress",
          "type": "address"
        }
      ],
      "name": "isPartner",
      "outputs": [
        {
          "internalType": "bool",
          "name": "",
          "type": "bool"
        }
      ],
      "stateMutability": "view",
      "type": "function",
      "constant": true
    },
    {
      "inputs": [
        {
          "internalType": "string",
          "name": "_chainID",
          "type": "string"
        }
      ],
      "name": "getProductIds",
      "outputs": [
        {
          "internalType": "string[]",
          "name": "",
          "type": "string[]"
        }
      ],
      "stateMutability": "view",
      "type": "function",
      "constant": true
    },
    {
      "inputs": [],
      "name": "getChainIds",
      "outputs": [
        {
          "internalType": "string[]",
          "name": "",
          "type": "string[]"
        }
      ],
      "stateMutability": "view",
      "type": "function",
      "constant": true
    },
    {
      "inputs": [
        {
          "internalType": "string",
          "name": "_chainId",
          "type": "string"
        }
      ],
      "name": "isChain",
      "outputs": [
        {
          "internalType": "bool",
          "name": "",
          "type": "bool"
        }
      ],
      "stateMutability": "view",
      "type": "function",
      "constant": true
    },
    {
      "inputs": [
        {
          "internalType": "string",
          "name": "_chainID",
          "type": "string"
        },
        {
          "internalType": "string",
          "name": "_productID",
          "type": "string"
        }
      ],
      "name": "getProduct",
      "outputs": [
        {
          "components": [
            {
              "internalType": "string",
              "name": "productName",
              "type": "string"
            },
            {
              "internalType": "string",
              "name": "productType",
              "type": "string"
            },
            {
              "internalType": "string",
              "name": "productCategory",
              "type": "string"
            },
            {
              "internalType": "uint256",
              "name": "harvestingTime",
              "type": "uint256"
            },
            {
              "internalType": "uint256",
              "name": "packagingTime",
              "type": "uint256"
            },
            {
              "internalType": "uint256",
              "name": "departureTime",
              "type": "uint256"
            },
            {
              "internalType": "uint256",
              "name": "receivingTime",
              "type": "uint256"
            },
            {
              "internalType": "uint256",
              "name": "cookedTime",
              "type": "uint256"
            },
            {
              "internalType": "address",
              "name": "stakeholderAddress",
              "type": "address"
            },
            {
              "internalType": "address",
              "name": "transporterAddress",
              "type": "address"
            },
            {
              "internalType": "address",
              "name": "receiverAddress",
              "type": "address"
            }
          ],
          "internalType": "struct ISChain.Product",
          "name": "",
          "type": "tuple"
        }
      ],
      "stateMutability": "view",
      "type": "function",
      "constant": true
    },
    {
      "inputs": [
        {
          "internalType": "string",
          "name": "_chainID",
          "type": "string"
        }
      ],
      "name": "getChain",
      "outputs": [
        {
          "components": [
            {
              "internalType": "string",
              "name": "productName",
              "type": "string"
            },
            {
              "internalType": "string",
              "name": "productType",
              "type": "string"
            },
            {
              "internalType": "string",
              "name": "productCategory",
              "type": "string"
            },
            {
              "internalType": "uint256",
              "name": "harvestingTime",
              "type": "uint256"
            },
            {
              "internalType": "uint256",
              "name": "packagingTime",
              "type": "uint256"
            },
            {
              "internalType": "uint256",
              "name": "departureTime",
              "type": "uint256"
            },
            {
              "internalType": "uint256",
              "name": "receivingTime",
              "type": "uint256"
            },
            {
              "internalType": "uint256",
              "name": "cookedTime",
              "type": "uint256"
            },
            {
              "internalType": "address",
              "name": "stakeholderAddress",
              "type": "address"
            },
            {
              "internalType": "address",
              "name": "transporterAddress",
              "type": "address"
            },
            {
              "internalType": "address",
              "name": "receiverAddress",
              "type": "address"
            }
          ],
          "internalType": "struct ISChain.Product[]",
          "name": "chain",
          "type": "tuple[]"
        }
      ],
      "stateMutability": "view",
      "type": "function",
      "constant": true
    }
  ],
  "bytecode": "0x608060405234801561001057600080fd5b5061164a806100206000396000f3fe608060405234801561001057600080fd5b50600436106100f55760003560e01c80638afdd66911610097578063b9aab3f911610066578063b9aab3f914610245578063d8c41d4214610265578063e0f6cc0714610278578063f39c76771461028b57600080fd5b80638afdd669146101bc5780638c0f9aac146101cf57806395c33652146101f257806396de42e51461021b57600080fd5b806329c2a877116100d357806329c2a8771461014b5780634cc1c2bb1461017657806350b492ba14610196578063897ec7df146101a957600080fd5b8063069aaa77146100fa5780631d7763231461011657806326d17ac11461012b575b600080fd5b61010360095481565b6040519081526020015b60405180910390f35b61011e61029e565b60405161010d9190611117565b61013e610139366004611179565b610377565b60405161010d9190611192565b61015e610159366004611179565b610423565b6040516001600160a01b03909116815260200161010d565b61018961018436600461124f565b61044d565b60405161010d9190611355565b61015e6101a4366004611179565b6106e8565b61015e6101b7366004611179565b6106f8565b61015e6101ca366004611179565b610708565b6101e26101dd3660046113aa565b610718565b604051901515815260200161010d565b6102056102003660046113aa565b610756565b60405161010d9a999897969594939291906113d3565b61022e610229366004611473565b610a5b565b60405161010d9b9a999897969594939291906114b8565b610258610253366004611547565b610c8c565b60405161010d91906115ab565b61011e61027336600461124f565b610f69565b6101e261028636600461124f565b611055565b61013e610299366004611473565b611080565b6060600e805480602002602001604051908101604052809291908181526020016000905b8282101561036e5783829060005260206000200180546102e1906115be565b80601f016020809104026020016040519081016040528092919081815260200182805461030d906115be565b801561035a5780601f1061032f5761010080835404028352916020019161035a565b820191906000526020600020905b81548152906001019060200180831161033d57829003601f168201915b5050505050815260200190600101906102c2565b50505050905090565b600e818154811061038757600080fd5b9060005260206000200160009150905080546103a2906115be565b80601f01602080910402602001604051908101604052809291908181526020018280546103ce906115be565b801561041b5780601f106103f05761010080835404028352916020019161041b565b820191906000526020600020905b8154815290600101906020018083116103fe57829003601f168201915b505050505081565b600b818154811061043357600080fd5b6000918252602090912001546001600160a01b0316905081565b606060048260405161045f91906115f8565b9081526020016040518091039020805480602002602001604051908101604052809291908181526020016000905b828210156106dd57838290600052602060002090600b0201604051806101600160405290816000820180546104c1906115be565b80601f01602080910402602001604051908101604052809291908181526020018280546104ed906115be565b801561053a5780601f1061050f5761010080835404028352916020019161053a565b820191906000526020600020905b81548152906001019060200180831161051d57829003601f168201915b50505050508152602001600182018054610553906115be565b80601f016020809104026020016040519081016040528092919081815260200182805461057f906115be565b80156105cc5780601f106105a1576101008083540402835291602001916105cc565b820191906000526020600020905b8154815290600101906020018083116105af57829003601f168201915b505050505081526020016002820180546105e5906115be565b80601f0160208091040260200160405190810160405280929190818152602001828054610611906115be565b801561065e5780601f106106335761010080835404028352916020019161065e565b820191906000526020600020905b81548152906001019060200180831161064157829003601f168201915b50505091835250506003820154602080830191909152600483015460408301526005830154606083015260068301546080830152600783015460a083015260088301546001600160a01b0390811660c08401526009840154811660e0840152600a9093015490921661010090910152908252600192909201910161048d565b505050509050919050565b600c818154811061043357600080fd5b600d818154811061043357600080fd5b600a818154811061043357600080fd5b60006001600160a01b03821661072d57600080fd5b506001600160a01b0316600090815260016020526040902060080154600160a01b900460ff1690565b600160208190526000918252604090912080549181015460028201805491929161077f906115be565b80601f01602080910402602001604051908101604052809291908181526020018280546107ab906115be565b80156107f85780601f106107cd576101008083540402835291602001916107f8565b820191906000526020600020905b8154815290600101906020018083116107db57829003601f168201915b50505050509080600301805461080d906115be565b80601f0160208091040260200160405190810160405280929190818152602001828054610839906115be565b80156108865780601f1061085b57610100808354040283529160200191610886565b820191906000526020600020905b81548152906001019060200180831161086957829003601f168201915b50505050509080600401805461089b906115be565b80601f01602080910402602001604051908101604052809291908181526020018280546108c7906115be565b80156109145780601f106108e957610100808354040283529160200191610914565b820191906000526020600020905b8154815290600101906020018083116108f757829003601f168201915b505050505090806005018054610929906115be565b80601f0160208091040260200160405190810160405280929190818152602001828054610955906115be565b80156109a25780601f10610977576101008083540402835291602001916109a2565b820191906000526020600020905b81548152906001019060200180831161098557829003601f168201915b5050505050908060060180546109b7906115be565b80601f01602080910402602001604051908101604052809291908181526020018280546109e3906115be565b8015610a305780601f10610a0557610100808354040283529160200191610a30565b820191906000526020600020905b815481529060010190602001808311610a1357829003601f168201915b5050505060078301546008909301549192916001600160a01b0381169150600160a01b900460ff168a565b81516020818401810180516004825292820191850191909120919052805482908110610a8657600080fd5b90600052602060002090600b020160009150915050806000018054610aaa906115be565b80601f0160208091040260200160405190810160405280929190818152602001828054610ad6906115be565b8015610b235780601f10610af857610100808354040283529160200191610b23565b820191906000526020600020905b815481529060010190602001808311610b0657829003601f168201915b505050505090806001018054610b38906115be565b80601f0160208091040260200160405190810160405280929190818152602001828054610b64906115be565b8015610bb15780601f10610b8657610100808354040283529160200191610bb1565b820191906000526020600020905b815481529060010190602001808311610b9457829003601f168201915b505050505090806002018054610bc6906115be565b80601f0160208091040260200160405190810160405280929190818152602001828054610bf2906115be565b8015610c3f5780601f10610c1457610100808354040283529160200191610c3f565b820191906000526020600020905b815481529060010190602001808311610c2257829003601f168201915b505050506003830154600484015460058501546006860154600787015460088801546009890154600a90990154979895979496509294919390926001600160a01b0390811692811691168b565b610d04604051806101600160405280606081526020016060815260200160608152602001600081526020016000815260200160008152602001600081526020016000815260200160006001600160a01b0316815260200160006001600160a01b0316815260200160006001600160a01b031681525090565b600083604051610d1491906115f8565b908152602001604051809103902082604051610d3091906115f8565b908152602001604051809103902060405180610160016040529081600082018054610d5a906115be565b80601f0160208091040260200160405190810160405280929190818152602001828054610d86906115be565b8015610dd35780601f10610da857610100808354040283529160200191610dd3565b820191906000526020600020905b815481529060010190602001808311610db657829003601f168201915b50505050508152602001600182018054610dec906115be565b80601f0160208091040260200160405190810160405280929190818152602001828054610e18906115be565b8015610e655780601f10610e3a57610100808354040283529160200191610e65565b820191906000526020600020905b815481529060010190602001808311610e4857829003601f168201915b50505050508152602001600282018054610e7e906115be565b80601f0160208091040260200160405190810160405280929190818152602001828054610eaa906115be565b8015610ef75780601f10610ecc57610100808354040283529160200191610ef7565b820191906000526020600020905b815481529060010190602001808311610eda57829003601f168201915b505050918352505060038201546020820152600482015460408201526005820154606082015260068201546080820152600782015460a082015260088201546001600160a01b0390811660c08301526009830154811660e0830152600a90920154909116610100909101529392505050565b6060600382604051610f7b91906115f8565b9081526020016040518091039020805480602002602001604051908101604052809291908181526020016000905b828210156106dd578382906000526020600020018054610fc8906115be565b80601f0160208091040260200160405190810160405280929190818152602001828054610ff4906115be565b80156110415780601f1061101657610100808354040283529160200191611041565b820191906000526020600020905b81548152906001019060200180831161102457829003601f168201915b505050505081526020019060010190610fa9565b600060028260405161106791906115f8565b9081526040519081900360200190205460ff1692915050565b815160208184018101805160038252928201918501919091209190528054829081106110ab57600080fd5b906000526020600020016000915091505080546103a2906115be565b60005b838110156110e25781810151838201526020016110ca565b50506000910152565b600081518084526111038160208601602086016110c7565b601f01601f19169290920160200192915050565b6000602080830181845280855180835260408601915060408160051b870101925083870160005b8281101561116c57603f1988860301845261115a8583516110eb565b9450928501929085019060010161113e565b5092979650505050505050565b60006020828403121561118b57600080fd5b5035919050565b6020815260006111a560208301846110eb565b9392505050565b634e487b7160e01b600052604160045260246000fd5b600082601f8301126111d357600080fd5b813567ffffffffffffffff808211156111ee576111ee6111ac565b604051601f8301601f19908116603f01168101908282118183101715611216576112166111ac565b8160405283815286602085880101111561122f57600080fd5b836020870160208301376000602085830101528094505050505092915050565b60006020828403121561126157600080fd5b813567ffffffffffffffff81111561127857600080fd5b611284848285016111c2565b949350505050565b600061016082518185526112a2828601826110eb565b915050602083015184820360208601526112bc82826110eb565b915050604083015184820360408601526112d682826110eb565b915050606083015160608501526080830151608085015260a083015160a085015260c083015160c085015260e083015160e085015261010080840151611326828701826001600160a01b03169052565b5050610120838101516001600160a01b0390811691860191909152610140938401511692909301919091525090565b6000602080830181845280855180835260408601915060408160051b870101925083870160005b8281101561116c57603f1988860301845261139885835161128c565b9450928501929085019060010161137c565b6000602082840312156113bc57600080fd5b81356001600160a01b03811681146111a557600080fd5b60006101408c83528b60208401528060408401526113f38184018c6110eb565b90508281036060840152611407818b6110eb565b9050828103608084015261141b818a6110eb565b905082810360a084015261142f81896110eb565b905082810360c084015261144381886110eb565b60e084019690965250506001600160a01b0392909216610100830152151561012090910152979650505050505050565b6000806040838503121561148657600080fd5b823567ffffffffffffffff81111561149d57600080fd5b6114a9858286016111c2565b95602094909401359450505050565b60006101608083526114cc8184018f6110eb565b905082810360208401526114e0818e6110eb565b905082810360408401526114f4818d6110eb565b606084019b909b525050608081019790975260a087019590955260c086019390935260e08501919091526001600160a01b0390811661010085015290811661012084015216610140909101529392505050565b6000806040838503121561155a57600080fd5b823567ffffffffffffffff8082111561157257600080fd5b61157e868387016111c2565b9350602085013591508082111561159457600080fd5b506115a1858286016111c2565b9150509250929050565b6020815260006111a5602083018461128c565b600181811c908216806115d257607f821691505b6020821081036115f257634e487b7160e01b600052602260045260246000fd5b50919050565b6000825161160a8184602087016110c7565b919091019291505056fea2646970667358221220fc1cc36fe31addf315e7b56c999adce8325260289fdf7c005e74286c4fc48ada64736f6c63430008130033",
  "immutableReferences": {},
  "source": "// SPDX-License-Identifier: MIT\npragma solidity 0.8.19;\n\nimport \"./ISChain.sol\";\n\ncontract SChainData is ISChain {\n    // defines a product whithin a chain: key1: chainId, key2: productId\n    mapping(string => mapping(string => Product)) products;\n    mapping(address => SCPartner) public partners;\n    mapping(string => bool)  _isChain;\n    mapping(string => string[]) public chainProductIds;\n    mapping(string => Product[]) public chains;\n\n    mapping(address => FarmerIds) farmerIds;\n    mapping(address => TransporterIds) transporterIds;\n    mapping(address => DistributorIds) distributorIds;\n    mapping(address => RetailerIds) retailerIds;\n\n    uint256 public numberOfChains;\n\n    address[] public farmers;\n    address[] public transporters;\n    address[] public distributors;\n    address[] public retailers;\n\n    string[] public listOfChainIds;\n\n    uint256 partnerCount;\n\n    modifier onlyFarmer {\n        require(partners[msg.sender].categoryId == 0, \"You must be a farmer\");\n        _;\n    }\n\n    modifier onlyTransporter {\n        require(partners[msg.sender].categoryId == 1, \"You must be a transporter\");\n        _;\n    }\n\n    modifier onlyDistributor {\n        require(partners[msg.sender].categoryId == 2, \"You must be a distributor\");\n        _;\n    }\n\n    modifier onlyRetailer {\n        require(partners[msg.sender].categoryId == 3, \"You must be a retailer\");\n        _;\n    }\n\n    event ProductRegistered(address farmer, string chainId, uint256 timestamp);\n    event ProductTransported(address transporter, address destinator, string chainId, uint256 timestamp);\n    event ProductDistributed(address distributor, address destinator, string chainId, uint256 timestamp);\n    event ProductCooked(address retailer, string chainId, string productId, uint256 timestamp);\n\n    function isPartner(address _partnerAddress) public view returns(bool) {\n        require(_partnerAddress != address(0));\n\n        return  partners[_partnerAddress].isPartner;\n    }\n\n    function getProductIds(string memory _chainID) public view returns(string[] memory) {\n        return chainProductIds[_chainID];\n    }\n\n    function getChainIds() public view returns(string[] memory) {\n        return listOfChainIds;\n    }\n\n    function isChain(string memory _chainId) public view returns(bool) {\n        return _isChain[_chainId];\n    }\n\n    function getProduct(\n        string memory _chainID,\n        string memory _productID\n    ) public view returns(Product memory) {\n        return products[_chainID][_productID];\n    }\n\n    function getChain(\n        string memory _chainID\n    ) public view returns(Product[] memory chain) {\n        return chains[_chainID];\n    }\n}",
  "sourcePath": "/Users/sam/Documents/Projects/AGREO/agreo/Dapp/contracts/SChainData.sol",
  "compiler": {
    "name": "solc",
    "version": "0.8.19+commit.7dd6d404.Emscripten.clang"
  },
  "schemaVersion": "3.4.9",
  "updatedAt": "2023-04-07T17:46:32.923Z",
  "networkType": "ethereum",
  "devdoc": {
    "kind": "dev",
    "methods": {},
    "version": 1
  },
  "userdoc": {
    "kind": "user",
    "methods": {},
    "version": 1
  }
}