{
  "contractName": "SChain",
  "abi": [
    {
      "anonymous": false,
      "inputs": [
        {
          "indexed": false,
          "internalType": "address",
          "name": "retailer",
          "type": "address"
        },
        {
          "indexed": false,
          "internalType": "string",
          "name": "chainId",
          "type": "string"
        },
        {
          "indexed": false,
          "internalType": "string",
          "name": "productId",
          "type": "string"
        },
        {
          "indexed": false,
          "internalType": "uint256",
          "name": "timestamp",
          "type": "uint256"
        }
      ],
      "name": "ProductCooked",
      "type": "event"
    },
    {
      "anonymous": false,
      "inputs": [
        {
          "indexed": false,
          "internalType": "address",
          "name": "distributor",
          "type": "address"
        },
        {
          "indexed": false,
          "internalType": "address",
          "name": "destinator",
          "type": "address"
        },
        {
          "indexed": false,
          "internalType": "string",
          "name": "chainId",
          "type": "string"
        },
        {
          "indexed": false,
          "internalType": "uint256",
          "name": "timestamp",
          "type": "uint256"
        }
      ],
      "name": "ProductDistributed",
      "type": "event"
    },
    {
      "anonymous": false,
      "inputs": [
        {
          "indexed": false,
          "internalType": "address",
          "name": "farmer",
          "type": "address"
        },
        {
          "indexed": false,
          "internalType": "string",
          "name": "chainId",
          "type": "string"
        },
        {
          "indexed": false,
          "internalType": "uint256",
          "name": "timestamp",
          "type": "uint256"
        }
      ],
      "name": "ProductRegistered",
      "type": "event"
    },
    {
      "anonymous": false,
      "inputs": [
        {
          "indexed": false,
          "internalType": "address",
          "name": "transporter",
          "type": "address"
        },
        {
          "indexed": false,
          "internalType": "address",
          "name": "destinator",
          "type": "address"
        },
        {
          "indexed": false,
          "internalType": "string",
          "name": "chainId",
          "type": "string"
        },
        {
          "indexed": false,
          "internalType": "uint256",
          "name": "timestamp",
          "type": "uint256"
        }
      ],
      "name": "ProductTransported",
      "type": "event"
    },
    {
      "inputs": [
        {
          "internalType": "string",
          "name": "",
          "type": "string"
        },
        {
          "internalType": "uint256",
          "name": "",
          "type": "uint256"
        }
      ],
      "name": "chainProductIds",
      "outputs": [
        {
          "internalType": "string",
          "name": "",
          "type": "string"
        }
      ],
      "stateMutability": "view",
      "type": "function",
      "constant": true
    },
    {
      "inputs": [
        {
          "internalType": "string",
          "name": "",
          "type": "string"
        },
        {
          "internalType": "uint256",
          "name": "",
          "type": "uint256"
        }
      ],
      "name": "chains",
      "outputs": [
        {
          "internalType": "string",
          "name": "productCategory",
          "type": "string"
        },
        {
          "internalType": "string",
          "name": "productType",
          "type": "string"
        },
        {
          "internalType": "string",
          "name": "productVariety",
          "type": "string"
        },
        {
          "internalType": "uint256",
          "name": "harvestingTime",
          "type": "uint256"
        },
        {
          "internalType": "uint256",
          "name": "packagingTime",
          "type": "uint256"
        },
        {
          "internalType": "uint256",
          "name": "departureTime",
          "type": "uint256"
        },
        {
          "internalType": "uint256",
          "name": "receivingTime",
          "type": "uint256"
        },
        {
          "internalType": "uint256",
          "name": "cookedTime",
          "type": "uint256"
        },
        {
          "internalType": "address",
          "name": "stakeholderAddress",
          "type": "address"
        },
        {
          "internalType": "address",
          "name": "transporterAddress",
          "type": "address"
        },
        {
          "internalType": "address",
          "name": "receiverAddress",
          "type": "address"
        }
      ],
      "stateMutability": "view",
      "type": "function",
      "constant": true
    },
    {
      "inputs": [
        {
          "internalType": "uint256",
          "name": "",
          "type": "uint256"
        }
      ],
      "name": "distributors",
      "outputs": [
        {
          "internalType": "address",
          "name": "",
          "type": "address"
        }
      ],
      "stateMutability": "view",
      "type": "function",
      "constant": true
    },
    {
      "inputs": [
        {
          "internalType": "uint256",
          "name": "",
          "type": "uint256"
        }
      ],
      "name": "farmers",
      "outputs": [
        {
          "internalType": "address",
          "name": "",
          "type": "address"
        }
      ],
      "stateMutability": "view",
      "type": "function",
      "constant": true
    },
    {
      "inputs": [
        {
          "internalType": "string",
          "name": "_chainID",
          "type": "string"
        }
      ],
      "name": "getChain",
      "outputs": [
        {
          "components": [
            {
              "internalType": "string",
              "name": "productCategory",
              "type": "string"
            },
            {
              "internalType": "string",
              "name": "productType",
              "type": "string"
            },
            {
              "internalType": "string",
              "name": "productVariety",
              "type": "string"
            },
            {
              "internalType": "uint256",
              "name": "harvestingTime",
              "type": "uint256"
            },
            {
              "internalType": "uint256",
              "name": "packagingTime",
              "type": "uint256"
            },
            {
              "internalType": "uint256",
              "name": "departureTime",
              "type": "uint256"
            },
            {
              "internalType": "uint256",
              "name": "receivingTime",
              "type": "uint256"
            },
            {
              "internalType": "uint256",
              "name": "cookedTime",
              "type": "uint256"
            },
            {
              "internalType": "address",
              "name": "stakeholderAddress",
              "type": "address"
            },
            {
              "internalType": "address",
              "name": "transporterAddress",
              "type": "address"
            },
            {
              "internalType": "address",
              "name": "receiverAddress",
              "type": "address"
            }
          ],
          "internalType": "struct ISChain.Product[]",
          "name": "chain",
          "type": "tuple[]"
        }
      ],
      "stateMutability": "view",
      "type": "function",
      "constant": true
    },
    {
      "inputs": [],
      "name": "getChainIds",
      "outputs": [
        {
          "internalType": "string[]",
          "name": "",
          "type": "string[]"
        }
      ],
      "stateMutability": "view",
      "type": "function",
      "constant": true
    },
    {
      "inputs": [
        {
          "internalType": "string",
          "name": "_chainID",
          "type": "string"
        },
        {
          "internalType": "string",
          "name": "_productID",
          "type": "string"
        }
      ],
      "name": "getProduct",
      "outputs": [
        {
          "components": [
            {
              "internalType": "string",
              "name": "productCategory",
              "type": "string"
            },
            {
              "internalType": "string",
              "name": "productType",
              "type": "string"
            },
            {
              "internalType": "string",
              "name": "productVariety",
              "type": "string"
            },
            {
              "internalType": "uint256",
              "name": "harvestingTime",
              "type": "uint256"
            },
            {
              "internalType": "uint256",
              "name": "packagingTime",
              "type": "uint256"
            },
            {
              "internalType": "uint256",
              "name": "departureTime",
              "type": "uint256"
            },
            {
              "internalType": "uint256",
              "name": "receivingTime",
              "type": "uint256"
            },
            {
              "internalType": "uint256",
              "name": "cookedTime",
              "type": "uint256"
            },
            {
              "internalType": "address",
              "name": "stakeholderAddress",
              "type": "address"
            },
            {
              "internalType": "address",
              "name": "transporterAddress",
              "type": "address"
            },
            {
              "internalType": "address",
              "name": "receiverAddress",
              "type": "address"
            }
          ],
          "internalType": "struct ISChain.Product",
          "name": "",
          "type": "tuple"
        }
      ],
      "stateMutability": "view",
      "type": "function",
      "constant": true
    },
    {
      "inputs": [
        {
          "internalType": "string",
          "name": "_chainID",
          "type": "string"
        }
      ],
      "name": "getProductIds",
      "outputs": [
        {
          "internalType": "string[]",
          "name": "",
          "type": "string[]"
        }
      ],
      "stateMutability": "view",
      "type": "function",
      "constant": true
    },
    {
      "inputs": [
        {
          "internalType": "string",
          "name": "_chainId",
          "type": "string"
        }
      ],
      "name": "isChain",
      "outputs": [
        {
          "internalType": "bool",
          "name": "",
          "type": "bool"
        }
      ],
      "stateMutability": "view",
      "type": "function",
      "constant": true
    },
    {
      "inputs": [
        {
          "internalType": "address",
          "name": "_partnerAddress",
          "type": "address"
        }
      ],
      "name": "isPartner",
      "outputs": [
        {
          "internalType": "bool",
          "name": "",
          "type": "bool"
        }
      ],
      "stateMutability": "view",
      "type": "function",
      "constant": true
    },
    {
      "inputs": [
        {
          "internalType": "uint256",
          "name": "",
          "type": "uint256"
        }
      ],
      "name": "listOfChainIds",
      "outputs": [
        {
          "internalType": "string",
          "name": "",
          "type": "string"
        }
      ],
      "stateMutability": "view",
      "type": "function",
      "constant": true
    },
    {
      "inputs": [],
      "name": "numberOfChains",
      "outputs": [
        {
          "internalType": "uint256",
          "name": "",
          "type": "uint256"
        }
      ],
      "stateMutability": "view",
      "type": "function",
      "constant": true
    },
    {
      "inputs": [
        {
          "internalType": "address",
          "name": "",
          "type": "address"
        }
      ],
      "name": "partners",
      "outputs": [
        {
          "internalType": "uint256",
          "name": "id",
          "type": "uint256"
        },
        {
          "internalType": "uint256",
          "name": "categoryId",
          "type": "uint256"
        },
        {
          "internalType": "string",
          "name": "category",
          "type": "string"
        },
        {
          "internalType": "string",
          "name": "name",
          "type": "string"
        },
        {
          "internalType": "string",
          "name": "location",
          "type": "string"
        },
        {
          "internalType": "string",
          "name": "url",
          "type": "string"
        },
        {
          "internalType": "string",
          "name": "email",
          "type": "string"
        },
        {
          "internalType": "string",
          "name": "phoneNumber",
          "type": "string"
        },
        {
          "internalType": "address",
          "name": "partnerAddress",
          "type": "address"
        },
        {
          "internalType": "bool",
          "name": "isPartner",
          "type": "bool"
        }
      ],
      "stateMutability": "view",
      "type": "function",
      "constant": true
    },
    {
      "inputs": [
        {
          "internalType": "uint256",
          "name": "",
          "type": "uint256"
        }
      ],
      "name": "retailers",
      "outputs": [
        {
          "internalType": "address",
          "name": "",
          "type": "address"
        }
      ],
      "stateMutability": "view",
      "type": "function",
      "constant": true
    },
    {
      "inputs": [
        {
          "internalType": "uint256",
          "name": "",
          "type": "uint256"
        }
      ],
      "name": "transporters",
      "outputs": [
        {
          "internalType": "address",
          "name": "",
          "type": "address"
        }
      ],
      "stateMutability": "view",
      "type": "function",
      "constant": true
    },
    {
      "inputs": [
        {
          "internalType": "uint256",
          "name": "_categoryId",
          "type": "uint256"
        },
        {
          "internalType": "string",
          "name": "_name",
          "type": "string"
        },
        {
          "internalType": "string",
          "name": "_location",
          "type": "string"
        },
        {
          "internalType": "string",
          "name": "_url",
          "type": "string"
        },
        {
          "internalType": "string",
          "name": "_email",
          "type": "string"
        },
        {
          "internalType": "string",
          "name": "_phoneNumber",
          "type": "string"
        }
      ],
      "name": "partnerRegistration",
      "outputs": [],
      "stateMutability": "nonpayable",
      "type": "function"
    },
    {
      "inputs": [
        {
          "internalType": "string",
          "name": "_chainID",
          "type": "string"
        },
        {
          "internalType": "string",
          "name": "_productID",
          "type": "string"
        },
        {
          "components": [
            {
              "internalType": "string",
              "name": "productCategory",
              "type": "string"
            },
            {
              "internalType": "string",
              "name": "productType",
              "type": "string"
            },
            {
              "internalType": "string",
              "name": "productVariety",
              "type": "string"
            },
            {
              "internalType": "uint256",
              "name": "harvestingTime",
              "type": "uint256"
            },
            {
              "internalType": "uint256",
              "name": "packagingTime",
              "type": "uint256"
            },
            {
              "internalType": "uint256",
              "name": "departureTime",
              "type": "uint256"
            },
            {
              "internalType": "uint256",
              "name": "receivingTime",
              "type": "uint256"
            },
            {
              "internalType": "uint256",
              "name": "cookedTime",
              "type": "uint256"
            },
            {
              "internalType": "address",
              "name": "stakeholderAddress",
              "type": "address"
            },
            {
              "internalType": "address",
              "name": "transporterAddress",
              "type": "address"
            },
            {
              "internalType": "address",
              "name": "receiverAddress",
              "type": "address"
            }
          ],
          "internalType": "struct ISChain.Product",
          "name": "_product",
          "type": "tuple"
        }
      ],
      "name": "productRegistration",
      "outputs": [],
      "stateMutability": "nonpayable",
      "type": "function"
    },
    {
      "inputs": [
        {
          "internalType": "string",
          "name": "_chainID",
          "type": "string"
        },
        {
          "internalType": "string",
          "name": "_productID",
          "type": "string"
        },
        {
          "components": [
            {
              "internalType": "string",
              "name": "productCategory",
              "type": "string"
            },
            {
              "internalType": "string",
              "name": "productType",
              "type": "string"
            },
            {
              "internalType": "string",
              "name": "productVariety",
              "type": "string"
            },
            {
              "internalType": "uint256",
              "name": "harvestingTime",
              "type": "uint256"
            },
            {
              "internalType": "uint256",
              "name": "packagingTime",
              "type": "uint256"
            },
            {
              "internalType": "uint256",
              "name": "departureTime",
              "type": "uint256"
            },
            {
              "internalType": "uint256",
              "name": "receivingTime",
              "type": "uint256"
            },
            {
              "internalType": "uint256",
              "name": "cookedTime",
              "type": "uint256"
            },
            {
              "internalType": "address",
              "name": "stakeholderAddress",
              "type": "address"
            },
            {
              "internalType": "address",
              "name": "transporterAddress",
              "type": "address"
            },
            {
              "internalType": "address",
              "name": "receiverAddress",
              "type": "address"
            }
          ],
          "internalType": "struct ISChain.Product",
          "name": "_product",
          "type": "tuple"
        }
      ],
      "name": "ProductTransportation",
      "outputs": [],
      "stateMutability": "nonpayable",
      "type": "function"
    },
    {
      "inputs": [
        {
          "internalType": "string",
          "name": "_chainID",
          "type": "string"
        },
        {
          "internalType": "string",
          "name": "_productID",
          "type": "string"
        },
        {
          "components": [
            {
              "internalType": "string",
              "name": "productCategory",
              "type": "string"
            },
            {
              "internalType": "string",
              "name": "productType",
              "type": "string"
            },
            {
              "internalType": "string",
              "name": "productVariety",
              "type": "string"
            },
            {
              "internalType": "uint256",
              "name": "harvestingTime",
              "type": "uint256"
            },
            {
              "internalType": "uint256",
              "name": "packagingTime",
              "type": "uint256"
            },
            {
              "internalType": "uint256",
              "name": "departureTime",
              "type": "uint256"
            },
            {
              "internalType": "uint256",
              "name": "receivingTime",
              "type": "uint256"
            },
            {
              "internalType": "uint256",
              "name": "cookedTime",
              "type": "uint256"
            },
            {
              "internalType": "address",
              "name": "stakeholderAddress",
              "type": "address"
            },
            {
              "internalType": "address",
              "name": "transporterAddress",
              "type": "address"
            },
            {
              "internalType": "address",
              "name": "receiverAddress",
              "type": "address"
            }
          ],
          "internalType": "struct ISChain.Product",
          "name": "_product",
          "type": "tuple"
        }
      ],
      "name": "productDistribution",
      "outputs": [],
      "stateMutability": "nonpayable",
      "type": "function"
    },
    {
      "inputs": [
        {
          "internalType": "string",
          "name": "_chainID",
          "type": "string"
        },
        {
          "internalType": "string",
          "name": "_productID",
          "type": "string"
        },
        {
          "components": [
            {
              "internalType": "string",
              "name": "productCategory",
              "type": "string"
            },
            {
              "internalType": "string",
              "name": "productType",
              "type": "string"
            },
            {
              "internalType": "string",
              "name": "productVariety",
              "type": "string"
            },
            {
              "internalType": "uint256",
              "name": "harvestingTime",
              "type": "uint256"
            },
            {
              "internalType": "uint256",
              "name": "packagingTime",
              "type": "uint256"
            },
            {
              "internalType": "uint256",
              "name": "departureTime",
              "type": "uint256"
            },
            {
              "internalType": "uint256",
              "name": "receivingTime",
              "type": "uint256"
            },
            {
              "internalType": "uint256",
              "name": "cookedTime",
              "type": "uint256"
            },
            {
              "internalType": "address",
              "name": "stakeholderAddress",
              "type": "address"
            },
            {
              "internalType": "address",
              "name": "transporterAddress",
              "type": "address"
            },
            {
              "internalType": "address",
              "name": "receiverAddress",
              "type": "address"
            }
          ],
          "internalType": "struct ISChain.Product",
          "name": "_product",
          "type": "tuple"
        }
      ],
      "name": "ReailerProduct",
      "outputs": [],
      "stateMutability": "nonpayable",
      "type": "function"
    }
  ],
  "bytecode": "0x608060405234801561001057600080fd5b506137b2806100206000396000f3fe608060405234801561001057600080fd5b506004361061012c5760003560e01c806395c33652116100ad578063e0f6cc0711610071578063e0f6cc07146102d7578063e49771b5146102ea578063f39c7677146102fd578063fbb4556214610310578063ff6a216d1461032357600080fd5b806395c336521461023e57806396de42e514610267578063b9aab3f914610291578063c4802a1f146102b1578063d8c41d42146102c457600080fd5b80634cc1c2bb116100f45780634cc1c2bb146101c257806350b492ba146101e2578063897ec7df146101f55780638afdd669146102085780638c0f9aac1461021b57600080fd5b8063069aaa77146101315780631d7763231461014d5780631ea523801461016257806326d17ac11461017757806329c2a87714610197575b600080fd5b61013a60095481565b6040519081526020015b60405180910390f35b610155610336565b6040516101449190612d19565b610175610170366004612e48565b61040f565b005b61018a610185366004612f22565b6107cc565b6040516101449190612f3b565b6101aa6101a5366004612f22565b610878565b6040516001600160a01b039091168152602001610144565b6101d56101d0366004612f55565b6108a2565b604051610144919061305b565b6101aa6101f0366004612f22565b610b3d565b6101aa610203366004612f22565b610b4d565b6101aa610216366004612f22565b610b5d565b61022e6102293660046130cc565b610b6d565b6040519015158152602001610144565b61025161024c3660046130cc565b610bab565b6040516101449a999897969594939291906130e7565b61027a610275366004613195565b610f39565b6040516101449b9a999897969594939291906131da565b6102a461029f366004613269565b61116a565b60405161014491906132cd565b6101756102bf3660046132e0565b611449565b6101556102d2366004612f55565b6119d3565b61022e6102e5366004612f55565b611abf565b6101756102f83660046132e0565b611aea565b61018a61030b366004613195565b612064565b61017561031e3660046132e0565b6120ab565b6101756103313660046132e0565b6127b6565b6060600e805480602002602001604051908101604052809291908181526020016000905b828210156104065783829060005260206000200180546103799061344f565b80601f01602080910402602001604051908101604052809291908181526020018280546103a59061344f565b80156103f25780601f106103c7576101008083540402835291602001916103f2565b820191906000526020600020905b8154815290600101906020018083116103d557829003601f168201915b50505050508152602001906001019061035a565b50505050905090565b600f805490600061041f8361349f565b9091555050600f54336000908152600160208190526040909120918255810187905560030161044e8682613503565b5033600090815260016020526040902060040161046b8582613503565b503360009081526001602052604090206005016104888482613503565b503360009081526001602052604090206006016104a58382613503565b503360009081526001602052604090206007016104c28282613503565b50336000818152600160205260408120600801805460ff60a01b199093166001600160a81b031990931692909217600160a01b179091558690036105855760408051808201825260068152652330b936b2b960d11b6020808301919091523360009081526001909152919091206002019061053d9082613503565b50600a80546001810182556000919091527fc65a7bb8d6351c1cf70c95a316cc6a92839c986682d98bc35f958f4883f9d2a80180546001600160a01b031916331790556107c4565b8560010361061757604080518082018252600b81526a2a3930b739b837b93a32b960a91b602080830191909152336000908152600190915291909120600201906105cf9082613503565b50600b80546001810182556000919091527f0175b7a638427703f0dbe7bb9bbf987a2551717b34e79f33b5b1008d1fa01db90180546001600160a01b031916331790556107c4565b856002036106a957604080518082018252600b81526a2234b9ba3934b13aba37b960a91b602080830191909152336000908152600190915291909120600201906106619082613503565b50600c80546001810182556000919091527fdf6966c971051c3d54ec59162606531493a51404a002842f56009d7e5cf4a8c70180546001600160a01b031916331790556107c4565b856003036107385760408051808201825260088152672932ba30b4b632b960c11b602080830191909152336000908152600190915291909120600201906106f09082613503565b50600d80546001810182556000919091527fd7b6990105719101dabeb77144f2a3385c8033acd3af97e9423a695e81ad1eb50180546001600160a01b031916331790556107c4565b60408051808201825260078152662ab735b737bbb760c91b602080830191909152336000908152600190915291909120600201906107769082613503565b5060405162461bcd60e51b815260206004820152601760248201527f556e6b6e6f7720706172746e65722063617465676f727900000000000000000060448201526064015b60405180910390fd5b505050505050565b600e81815481106107dc57600080fd5b9060005260206000200160009150905080546107f79061344f565b80601f01602080910402602001604051908101604052809291908181526020018280546108239061344f565b80156108705780601f1061084557610100808354040283529160200191610870565b820191906000526020600020905b81548152906001019060200180831161085357829003601f168201915b505050505081565b600b818154811061088857600080fd5b6000918252602090912001546001600160a01b0316905081565b60606004826040516108b491906135c3565b9081526020016040518091039020805480602002602001604051908101604052809291908181526020016000905b82821015610b3257838290600052602060002090600b0201604051806101600160405290816000820180546109169061344f565b80601f01602080910402602001604051908101604052809291908181526020018280546109429061344f565b801561098f5780601f106109645761010080835404028352916020019161098f565b820191906000526020600020905b81548152906001019060200180831161097257829003601f168201915b505050505081526020016001820180546109a89061344f565b80601f01602080910402602001604051908101604052809291908181526020018280546109d49061344f565b8015610a215780601f106109f657610100808354040283529160200191610a21565b820191906000526020600020905b815481529060010190602001808311610a0457829003601f168201915b50505050508152602001600282018054610a3a9061344f565b80601f0160208091040260200160405190810160405280929190818152602001828054610a669061344f565b8015610ab35780601f10610a8857610100808354040283529160200191610ab3565b820191906000526020600020905b815481529060010190602001808311610a9657829003601f168201915b50505091835250506003820154602080830191909152600483015460408301526005830154606083015260068301546080830152600783015460a083015260088301546001600160a01b0390811660c08401526009840154811660e0840152600a909301549092166101009091015290825260019290920191016108e2565b505050509050919050565b600c818154811061088857600080fd5b600d818154811061088857600080fd5b600a818154811061088857600080fd5b60006001600160a01b038216610b8257600080fd5b506001600160a01b0316600090815260016020526040902060080154600160a01b900460ff1690565b6001602081905260009182526040909120805491810154600282018054919291610bd49061344f565b80601f0160208091040260200160405190810160405280929190818152602001828054610c009061344f565b8015610c4d5780601f10610c2257610100808354040283529160200191610c4d565b820191906000526020600020905b815481529060010190602001808311610c3057829003601f168201915b505050505090806003018054610c629061344f565b80601f0160208091040260200160405190810160405280929190818152602001828054610c8e9061344f565b8015610cdb5780601f10610cb057610100808354040283529160200191610cdb565b820191906000526020600020905b815481529060010190602001808311610cbe57829003601f168201915b505050505090806004018054610cf09061344f565b80601f0160208091040260200160405190810160405280929190818152602001828054610d1c9061344f565b8015610d695780601f10610d3e57610100808354040283529160200191610d69565b820191906000526020600020905b815481529060010190602001808311610d4c57829003601f168201915b505050505090806005018054610d7e9061344f565b80601f0160208091040260200160405190810160405280929190818152602001828054610daa9061344f565b8015610df75780601f10610dcc57610100808354040283529160200191610df7565b820191906000526020600020905b815481529060010190602001808311610dda57829003601f168201915b505050505090806006018054610e0c9061344f565b80601f0160208091040260200160405190810160405280929190818152602001828054610e389061344f565b8015610e855780601f10610e5a57610100808354040283529160200191610e85565b820191906000526020600020905b815481529060010190602001808311610e6857829003601f168201915b505050505090806007018054610e9a9061344f565b80601f0160208091040260200160405190810160405280929190818152602001828054610ec69061344f565b8015610f135780601f10610ee857610100808354040283529160200191610f13565b820191906000526020600020905b815481529060010190602001808311610ef657829003601f168201915b505050600890930154919250506001600160a01b0381169060ff600160a01b909104168a565b81516020818401810180516004825292820191850191909120919052805482908110610f6457600080fd5b90600052602060002090600b020160009150915050806000018054610f889061344f565b80601f0160208091040260200160405190810160405280929190818152602001828054610fb49061344f565b80156110015780601f10610fd657610100808354040283529160200191611001565b820191906000526020600020905b815481529060010190602001808311610fe457829003601f168201915b5050505050908060010180546110169061344f565b80601f01602080910402602001604051908101604052809291908181526020018280546110429061344f565b801561108f5780601f106110645761010080835404028352916020019161108f565b820191906000526020600020905b81548152906001019060200180831161107257829003601f168201915b5050505050908060020180546110a49061344f565b80601f01602080910402602001604051908101604052809291908181526020018280546110d09061344f565b801561111d5780601f106110f25761010080835404028352916020019161111d565b820191906000526020600020905b81548152906001019060200180831161110057829003601f168201915b505050506003830154600484015460058501546006860154600787015460088801546009890154600a90990154979895979496509294919390926001600160a01b0390811692811691168b565b6111e2604051806101600160405280606081526020016060815260200160608152602001600081526020016000815260200160008152602001600081526020016000815260200160006001600160a01b0316815260200160006001600160a01b0316815260200160006001600160a01b031681525090565b6000836040516111f291906135c3565b90815260200160405180910390208260405161120e91906135c3565b9081526020016040518091039020604051806101600160405290816000820180546112389061344f565b80601f01602080910402602001604051908101604052809291908181526020018280546112649061344f565b80156112b15780601f10611286576101008083540402835291602001916112b1565b820191906000526020600020905b81548152906001019060200180831161129457829003601f168201915b505050505081526020016001820180546112ca9061344f565b80601f01602080910402602001604051908101604052809291908181526020018280546112f69061344f565b80156113435780601f1061131857610100808354040283529160200191611343565b820191906000526020600020905b81548152906001019060200180831161132657829003601f168201915b5050505050815260200160028201805461135c9061344f565b80601f01602080910402602001604051908101604052809291908181526020018280546113889061344f565b80156113d55780601f106113aa576101008083540402835291602001916113d5565b820191906000526020600020905b8154815290600101906020018083116113b857829003601f168201915b505050918352505060038201546020820152600482015460408201526005820154606082015260068201546080820152600782015460a082015260088201546001600160a01b0390811660c08301526009830154811660e0830152600a909201549091166101009091015290505b92915050565b336000908152600160208190526040909120810154146114ab5760405162461bcd60e51b815260206004820152601960248201527f596f75206d7573742062652061207472616e73706f727465720000000000000060448201526064016107bb565b6114b483611abf565b6114d05760405162461bcd60e51b81526004016107bb906135df565b816040516020016114e191906135c3565b604051602081830303815290604052805190602001208360405160200161150891906135c3565b604051602081830303815290604052805190602001200361153b5760405162461bcd60e51b81526004016107bb9061360d565b8060008460405161154c91906135c3565b90815260200160405180910390208360405161156891906135c3565b908152604051908190036020019020815181906115859082613503565b506020820151600182019061159a9082613503565b50604082015160028201906115af9082613503565b50606082015160038201556080820151600482015560a0820151600582015560c082015160068083019190915560e083015160078301556101008301516008830180546001600160a01b03199081166001600160a01b0393841617909155610120850151600985018054831691841691909117905561014090940151600a90930180549094169216919091179091553360009081526020918252604081208054600181018255908252919020016116668482613503565b50336000908152600660209081526040822060019081018054918201815583529120016116938382613503565b506003836040516116a491906135c3565b9081526040516020918190038201902080546001810182556000918252919020016116cf8382613503565b506004836040516116e091906135c3565b908152604051602091819003820190208054600181018255600091825291902082518392600b029091019081906117179082613503565b506020820151600182019061172c9082613503565b50604082015160028201906117419082613503565b50606082015160038201556080820151600482015560a0820151600582015560c0820151600682015560e082015160078201556101008201516008820180546001600160a01b03199081166001600160a01b0393841617909155610120840151600984018054831691841691909117905561014090930151600a9092018054909316911617905560405160009081906117db9086906135c3565b9081526020016040518091039020836040516117f791906135c3565b908152604051908190036020018120600801546001600160a01b0316915060009081906118259087906135c3565b90815260200160405180910390208460405161184191906135c3565b908152604051908190036020018120600a01546001600160a01b03169150600090819061186f9088906135c3565b90815260200160405180910390208560405161188b91906135c3565b9081526020016040518091039020600501549050600080876040516118b091906135c3565b9081526020016040518091039020866040516118cc91906135c3565b9081526040519081900360200190206006015490506001600160a01b038416331480156118fd57506118fd84610b6d565b6119495760405162461bcd60e51b815260206004820152601b60248201527f696e76616c6964207472616e73706f727465722061646472657373000000000060448201526064016107bb565b61195283610b6d565b61196e5760405162461bcd60e51b81526004016107bb90613653565b81811061198d5760405162461bcd60e51b81526004016107bb9061368a565b7f29defadbb7e6445cd0fdf6d7187dadfb29a7f250bb0dd627fbb49a47e00c8514848489426040516119c294939291906136b0565b60405180910390a150505050505050565b60606003826040516119e591906135c3565b9081526020016040518091039020805480602002602001604051908101604052809291908181526020016000905b82821015610b32578382906000526020600020018054611a329061344f565b80601f0160208091040260200160405190810160405280929190818152602001828054611a5e9061344f565b8015611aab5780601f10611a8057610100808354040283529160200191611aab565b820191906000526020600020905b815481529060010190602001808311611a8e57829003601f168201915b505050505081526020019060010190611a13565b6000600282604051611ad191906135c3565b9081526040519081900360200190205460ff1692915050565b3360009081526001602081905260409091200154600214611b4d5760405162461bcd60e51b815260206004820152601960248201527f596f75206d7573742062652061206469737472696275746f720000000000000060448201526064016107bb565b611b5683611abf565b611b725760405162461bcd60e51b81526004016107bb906135df565b81604051602001611b8391906135c3565b6040516020818303038152906040528051906020012083604051602001611baa91906135c3565b6040516020818303038152906040528051906020012003611bdd5760405162461bcd60e51b81526004016107bb9061360d565b80600084604051611bee91906135c3565b908152602001604051809103902083604051611c0a91906135c3565b90815260405190819003602001902081518190611c279082613503565b5060208201516001820190611c3c9082613503565b5060408201516002820190611c519082613503565b50606082015160038201556080820151600482015560a0820151600582015560c0820151600682015560e08201516007808301919091556101008301516008830180546001600160a01b03199081166001600160a01b0393841617909155610120850151600985018054831691841691909117905561014090940151600a9093018054909416921691909117909155336000908152602091825260408120805460018101825590825291902001611d088482613503565b5033600090815260076020908152604082206001908101805491820181558352912001611d358382613503565b50600383604051611d4691906135c3565b908152604051602091819003820190208054600181018255600091825291902001611d718382613503565b50600483604051611d8291906135c3565b908152604051602091819003820190208054600181018255600091825291902082518392600b02909101908190611db99082613503565b5060208201516001820190611dce9082613503565b5060408201516002820190611de39082613503565b50606082015160038201556080820151600482015560a0820151600582015560c0820151600682015560e082015160078201556101008201516008820180546001600160a01b03199081166001600160a01b0393841617909155610120840151600984018054831691841691909117905561014090930151600a909201805490931691161790556040516000908190611e7d9086906135c3565b908152602001604051809103902083604051611e9991906135c3565b908152604051908190036020018120600801546001600160a01b031691506000908190611ec79087906135c3565b908152602001604051809103902084604051611ee391906135c3565b908152604051908190036020018120600a01546001600160a01b031691506000908190611f119088906135c3565b908152602001604051809103902085604051611f2d91906135c3565b908152602001604051809103902060050154905060008087604051611f5291906135c3565b908152602001604051809103902086604051611f6e91906135c3565b9081526040519081900360200190206006015490506001600160a01b03841633148015611f9f5750611f9f84610b6d565b611feb5760405162461bcd60e51b815260206004820152601b60248201527f696e76616c6964206469737472696275746f722061646472657373000000000060448201526064016107bb565b611ff483610b6d565b6120105760405162461bcd60e51b81526004016107bb90613653565b81811061202f5760405162461bcd60e51b81526004016107bb9061368a565b7f0ad6cb6ac099d0d0efc139f6d31e4b4314d93fd679f926e6c9b0f950bbc283b1848489426040516119c294939291906136b0565b8151602081840181018051600382529282019185019190912091905280548290811061208f57600080fd5b906000526020600020016000915091505080546107f79061344f565b3360009081526001602081905260409091200154156121035760405162461bcd60e51b81526020600482015260146024820152732cb7ba9036bab9ba1031329030903330b936b2b960611b60448201526064016107bb565b61210c83611abf565b156121505760405162461bcd60e51b8152602060048201526014602482015273436861696e20616c72656164792065786973747360601b60448201526064016107bb565b8160405160200161216191906135c3565b604051602081830303815290604052805190602001208360405160200161218891906135c3565b60405160208183030381529060405280519060200120036121bb5760405162461bcd60e51b81526004016107bb9061360d565b60016002846040516121cd91906135c3565b908152604051908190036020018120805492151560ff199093169290921790915581906000906121fe9086906135c3565b90815260200160405180910390208360405161221a91906135c3565b908152604051908190036020019020815181906122379082613503565b506020820151600182019061224c9082613503565b50604082015160028201906122619082613503565b50606082015160038201556080820151600482015560a0820151600582015560c0820151600682015560e082015160078201556101008201516008820180546001600160a01b039283166001600160a01b031991821617909155610120840151600980850180549285169284169290921790915561014090940151600a9093018054939092169216919091179055546122fb8160016136ed565b600955600e80546001810182556000919091527fbb7b4a454dc3493923482f07822329ed19e8244eff582cc204f8554c3620c3fd0161233a8582613503565b50336000908152600560209081526040822080546001810182559083529120016123648582613503565b50336000908152600560209081526040822060019081018054918201815583529120016123918482613503565b506003846040516123a291906135c3565b9081526040516020918190038201902080546001810182556000918252919020016123cd8482613503565b506004846040516123de91906135c3565b908152604051602091819003820190208054600181018255600091825291902083518492600b029091019081906124159082613503565b506020820151600182019061242a9082613503565b506040820151600282019061243f9082613503565b50606082015160038201556080820151600482015560a0820151600582015560c0820151600682015560e082015160078201556101008201516008820180546001600160a01b03199081166001600160a01b0393841617909155610120840151600984018054831691841691909117905561014090930151600a9092018054909316911617905560405160009081906124d99087906135c3565b9081526020016040518091039020846040516124f591906135c3565b908152604051908190036020018120600801546001600160a01b0316915060009081906125239088906135c3565b90815260200160405180910390208560405161253f91906135c3565b908152604051908190036020018120600a01546001600160a01b03169150600090819061256d9089906135c3565b90815260200160405180910390208660405161258991906135c3565b908152604051908190036020018120600901546001600160a01b0316915060009081906125b7908a906135c3565b9081526020016040518091039020876040516125d391906135c3565b9081526020016040518091039020600301549050600080896040516125f891906135c3565b90815260200160405180910390208860405161261491906135c3565b90815260200160405180910390206004015490506000808a60405161263991906135c3565b90815260200160405180910390208960405161265591906135c3565b9081526040519081900360200190206005015490506001600160a01b03861633148015612686575061268686610b6d565b6126cb5760405162461bcd60e51b8152602060048201526016602482015275696e76616c6964206661726d6572206164647265737360501b60448201526064016107bb565b6126d484610b6d565b6127205760405162461bcd60e51b815260206004820152601b60248201527f696e76616c6964207472616e73706f727465722061646472657373000000000060448201526064016107bb565b61272985610b6d565b6127455760405162461bcd60e51b81526004016107bb90613653565b818310801561275357508082105b61276f5760405162461bcd60e51b81526004016107bb9061368a565b7f43c1461a2ae49ffb609132955604e30e51b2789a29d686d80ae1dba65a8d9012868b426040516127a293929190613700565b60405180910390a150505050505050505050565b33600090815260016020819052604090912001546003146128125760405162461bcd60e51b81526020600482015260166024820152752cb7ba9036bab9ba1031329030903932ba30b4b632b960511b60448201526064016107bb565b61281b83611abf565b6128375760405162461bcd60e51b81526004016107bb906135df565b8160405160200161284891906135c3565b604051602081830303815290604052805190602001208360405160200161286f91906135c3565b60405160208183030381529060405280519060200120036128a25760405162461bcd60e51b81526004016107bb9061360d565b806000846040516128b391906135c3565b9081526020016040518091039020836040516128cf91906135c3565b908152604051908190036020019020815181906128ec9082613503565b50602082015160018201906129019082613503565b50604082015160028201906129169082613503565b50606082015160038201556080820151600482015560a0820151600582015560c0820151600682015560e08201516007820155610100820151600880830180546001600160a01b03199081166001600160a01b0394851617909155610120850151600985018054831691851691909117905561014090940151600a909301805490941692909116919091179091553360009081526020918252604081208054600181018255908252919020016129cc8482613503565b50336000908152600860209081526040822060019081018054918201815583529120016129f98382613503565b50600383604051612a0a91906135c3565b908152604051602091819003820190208054600181018255600091825291902001612a358382613503565b50600483604051612a4691906135c3565b908152604051602091819003820190208054600181018255600091825291902082518392600b02909101908190612a7d9082613503565b5060208201516001820190612a929082613503565b5060408201516002820190612aa79082613503565b50606082015160038201556080820151600482015560a0820151600582015560c0820151600682015560e082015160078201556101008201516008820180546001600160a01b03199081166001600160a01b0393841617909155610120840151600984018054831691841691909117905561014090930151600a909201805490931691161790556040516000908190612b419086906135c3565b908152602001604051809103902083604051612b5d91906135c3565b908152604051908190036020018120600801546001600160a01b031691506000908190612b8b9087906135c3565b908152602001604051809103902084604051612ba791906135c3565b908152602001604051809103902060060154905060008086604051612bcc91906135c3565b908152602001604051809103902085604051612be891906135c3565b9081526040519081900360200190206007015490506001600160a01b03831633148015612c195750612c1983610b6d565b612c655760405162461bcd60e51b815260206004820152601860248201527f696e76616c69642072657461696c65722061646472657373000000000000000060448201526064016107bb565b808210612c845760405162461bcd60e51b81526004016107bb9061368a565b7f31c26ffd85346c935c43bbbb4ed10975e3694ebd1405e765e8d285c51a9afbc083878742604051612cb99493929190613734565b60405180910390a1505050505050565b60005b83811015612ce4578181015183820152602001612ccc565b50506000910152565b60008151808452612d05816020860160208601612cc9565b601f01601f19169290920160200192915050565b6000602080830181845280855180835260408601915060408160051b870101925083870160005b82811015612d6e57603f19888603018452612d5c858351612ced565b94509285019290850190600101612d40565b5092979650505050505050565b634e487b7160e01b600052604160045260246000fd5b604051610160810167ffffffffffffffff81118282101715612db557612db5612d7b565b60405290565b600082601f830112612dcc57600080fd5b813567ffffffffffffffff80821115612de757612de7612d7b565b604051601f8301601f19908116603f01168101908282118183101715612e0f57612e0f612d7b565b81604052838152866020858801011115612e2857600080fd5b836020870160208301376000602085830101528094505050505092915050565b60008060008060008060c08789031215612e6157600080fd5b86359550602087013567ffffffffffffffff80821115612e8057600080fd5b612e8c8a838b01612dbb565b96506040890135915080821115612ea257600080fd5b612eae8a838b01612dbb565b95506060890135915080821115612ec457600080fd5b612ed08a838b01612dbb565b94506080890135915080821115612ee657600080fd5b612ef28a838b01612dbb565b935060a0890135915080821115612f0857600080fd5b50612f1589828a01612dbb565b9150509295509295509295565b600060208284031215612f3457600080fd5b5035919050565b602081526000612f4e6020830184612ced565b9392505050565b600060208284031215612f6757600080fd5b813567ffffffffffffffff811115612f7e57600080fd5b612f8a84828501612dbb565b949350505050565b60006101608251818552612fa882860182612ced565b91505060208301518482036020860152612fc28282612ced565b91505060408301518482036040860152612fdc8282612ced565b915050606083015160608501526080830151608085015260a083015160a085015260c083015160c085015260e083015160e08501526101008084015161302c828701826001600160a01b03169052565b5050610120838101516001600160a01b0390811691860191909152610140938401511692909301919091525090565b6000602080830181845280855180835260408601915060408160051b870101925083870160005b82811015612d6e57603f1988860301845261309e858351612f92565b94509285019290850190600101613082565b80356001600160a01b03811681146130c757600080fd5b919050565b6000602082840312156130de57600080fd5b612f4e826130b0565b60006101408c83528b60208401528060408401526131078184018c612ced565b9050828103606084015261311b818b612ced565b9050828103608084015261312f818a612ced565b905082810360a08401526131438189612ced565b905082810360c08401526131578188612ced565b905082810360e084015261316b8187612ced565b6001600160a01b039590951661010084015250509015156101209091015298975050505050505050565b600080604083850312156131a857600080fd5b823567ffffffffffffffff8111156131bf57600080fd5b6131cb85828601612dbb565b95602094909401359450505050565b60006101608083526131ee8184018f612ced565b90508281036020840152613202818e612ced565b90508281036040840152613216818d612ced565b606084019b909b525050608081019790975260a087019590955260c086019390935260e08501919091526001600160a01b0390811661010085015290811661012084015216610140909101529392505050565b6000806040838503121561327c57600080fd5b823567ffffffffffffffff8082111561329457600080fd5b6132a086838701612dbb565b935060208501359150808211156132b657600080fd5b506132c385828601612dbb565b9150509250929050565b602081526000612f4e6020830184612f92565b6000806000606084860312156132f557600080fd5b833567ffffffffffffffff8082111561330d57600080fd5b61331987838801612dbb565b9450602086013591508082111561332f57600080fd5b61333b87838801612dbb565b9350604086013591508082111561335157600080fd5b90850190610160828803121561336657600080fd5b61336e612d91565b82358281111561337d57600080fd5b61338989828601612dbb565b82525060208301358281111561339e57600080fd5b6133aa89828601612dbb565b6020830152506040830135828111156133c257600080fd5b6133ce89828601612dbb565b604083015250606083013560608201526080830135608082015260a083013560a082015260c083013560c082015260e083013560e082015261010091506134168284016130b0565b82820152610120915061342a8284016130b0565b82820152610140915061343e8284016130b0565b828201528093505050509250925092565b600181811c9082168061346357607f821691505b60208210810361348357634e487b7160e01b600052602260045260246000fd5b50919050565b634e487b7160e01b600052601160045260246000fd5b6000600182016134b1576134b1613489565b5060010190565b601f8211156134fe57600081815260208120601f850160051c810160208610156134df5750805b601f850160051c820191505b818110156107c4578281556001016134eb565b505050565b815167ffffffffffffffff81111561351d5761351d612d7b565b6135318161352b845461344f565b846134b8565b602080601f831160018114613566576000841561354e5750858301515b600019600386901b1c1916600185901b1785556107c4565b600085815260208120601f198616915b8281101561359557888601518255948401946001909101908401613576565b50858210156135b35787850151600019600388901b60f8161c191681555b5050505050600190811b01905550565b600082516135d5818460208701612cc9565b9190910192915050565b602080825260149082015273436861696e20646f65736e27742065786973747360601b604082015260600190565b60208082526026908201527f436861696e4944206d75737420626520646966666572656e7420746f2050726f604082015265191d58dd125160d21b606082015260800190565b60208082526018908201527f696e76616c696420726563656976657220616464726573730000000000000000604082015260600190565b6020808252600c908201526b696e76616c69642074696d6560a01b604082015260600190565b6001600160a01b038581168252841660208201526080604082018190526000906136dc90830185612ced565b905082606083015295945050505050565b8082018082111561144357611443613489565b6001600160a01b038416815260606020820181905260009061372490830185612ced565b9050826040830152949350505050565b6001600160a01b038516815260806020820181905260009061375890830186612ced565b828103604084015261376a8186612ced565b9150508260608301529594505050505056fea26469706673582212201cfa825a1f5bfc2d947442518a8c53e098610d203b72c92cf1b9d943cb0f136464736f6c63430008130033",
  "immutableReferences": {},
  "source": "// SPDX-License-Identifier: MIT\npragma solidity 0.8.19;\n\nimport \"./SChainData.sol\";\n\ncontract SChain is SChainData {\n    function partnerRegistration(\n        uint256 _categoryId,\n        string memory _name,\n        string memory _location,\n        string memory _url,\n        string memory _email,\n        string memory _phoneNumber\n    ) public {\n        partnerCount++;\n        partners[msg.sender].id = partnerCount;\n        partners[msg.sender].categoryId = _categoryId;\n        partners[msg.sender].name = _name;\n        partners[msg.sender].location = _location; \n        partners[msg.sender].url = _url; \n        partners[msg.sender].email = _email;\n        partners[msg.sender].phoneNumber = _phoneNumber;\n        partners[msg.sender].partnerAddress = msg.sender;\n        partners[msg.sender].isPartner = true;\n\n        if (_categoryId == 0) {\n            partners[msg.sender].category = \"Farmer\";\n            farmers.push(msg.sender);\n        } else if (_categoryId == 1) {\n            partners[msg.sender].category = \"Transporter\";\n            transporters.push(msg.sender);\n        } else if (_categoryId == 2) {\n            partners[msg.sender].category = \"Distributor\";\n            distributors.push(msg.sender);\n        } else if (_categoryId == 3) {\n            partners[msg.sender].category = \"Retailer\";\n            retailers.push(msg.sender);\n        } else {\n            partners[msg.sender].category = \"Unknown\";\n            revert(\"Unknow partner category\");\n        }\n    }\n\n    function productRegistration(\n        string memory _chainID,\n        string memory _productID,\n        Product memory _product\n    ) public onlyFarmer {\n        require(!isChain(_chainID), \"Chain already exists\");\n        require(\n            keccak256(abi.encodePacked(_chainID)) != keccak256(abi.encodePacked(_productID)),\n            \"ChainID must be different to ProductID\"\n        );\n\n        _isChain[_chainID] = true;\n        products[_chainID][_productID] = _product;\n\n        uint256 _numberOfChains = numberOfChains;\n        numberOfChains = _numberOfChains + 1;\n        listOfChainIds.push(_chainID);\n        farmerIds[msg.sender].chainIds.push(_chainID);\n        farmerIds[msg.sender].productIds.push(_productID);\n        chainProductIds[_chainID].push(_productID);\n        chains[_chainID].push(_product);\n\n        address farmer = products[_chainID][_productID].stakeholderAddress;\n        address receiver = products[_chainID][_productID].receiverAddress;\n        address transporter = products[_chainID][_productID].transporterAddress;\n        uint256 harvestingTime = products[_chainID][_productID].harvestingTime;\n        uint256 packagingTime = products[_chainID][_productID].packagingTime;\n        uint256 departureTime = products[_chainID][_productID].departureTime;\n\n        require(farmer == msg.sender && isPartner(farmer), \"invalid farmer address\");\n        require(isPartner(transporter), \"invalid transporter address\");\n        require(isPartner(receiver), \"invalid receiver address\");\n        require(\n            harvestingTime < packagingTime && packagingTime < departureTime,\n            \"invalid time\"\n        );\n\n        emit ProductRegistered(farmer, _chainID, block.timestamp);\n    }\n\n    function ProductTransportation(\n        string memory _chainID,\n        string memory _productID,\n        Product memory _product\n    ) public onlyTransporter {\n        require(isChain(_chainID), \"Chain doesn't exists\");\n        require(\n            keccak256(abi.encodePacked(_chainID)) != keccak256(abi.encodePacked(_productID)),\n            \"ChainID must be different to ProductID\"\n        );\n\n        products[_chainID][_productID] = _product;\n\n        transporterIds[msg.sender].chainIds.push(_chainID);\n        transporterIds[msg.sender].productIds.push(_productID);\n        chainProductIds[_chainID].push(_productID);\n        chains[_chainID].push(_product);\n\n        address transporter = products[_chainID][_productID].stakeholderAddress;\n        address receiver = products[_chainID][_productID].receiverAddress;\n        uint256 departureTime = products[_chainID][_productID].departureTime;\n        uint256 receivingTime = products[_chainID][_productID].receivingTime;\n\n        require(transporter == msg.sender && isPartner(transporter), \"invalid transporter address\");\n        require(isPartner(receiver), \"invalid receiver address\");\n        require(\n            receivingTime < departureTime,\n            \"invalid time\"\n        );\n\n        emit ProductTransported(transporter, receiver, _chainID, block.timestamp);\n    }\n\n    function productDistribution(\n        string memory _chainID,\n        string memory _productID,\n        Product memory _product \n    ) public onlyDistributor {\n        require(isChain(_chainID), \"Chain doesn't exists\");\n        require(\n            keccak256(abi.encodePacked(_chainID)) != keccak256(abi.encodePacked(_productID)),\n            \"ChainID must be different to ProductID\"\n        );\n\n        products[_chainID][_productID] = _product;\n\n        distributorIds[msg.sender].chainIds.push(_chainID);\n        distributorIds[msg.sender].productIds.push(_productID);\n        chainProductIds[_chainID].push(_productID);\n        chains[_chainID].push(_product);\n\n        address distributor = products[_chainID][_productID].stakeholderAddress;\n        address receiver = products[_chainID][_productID].receiverAddress;\n        uint256 departureTime = products[_chainID][_productID].departureTime;\n        uint256 receivingTime = products[_chainID][_productID].receivingTime;\n\n        require(distributor == msg.sender && isPartner(distributor), \"invalid distributor address\");\n        require(isPartner(receiver), \"invalid receiver address\");\n        require(\n            receivingTime < departureTime,\n            \"invalid time\"\n        );\n\n        emit ProductDistributed(distributor, receiver, _chainID, block.timestamp);\n    }\n\n    function ReailerProduct(\n        string memory _chainID,\n        string memory _productID,\n        Product memory _product \n    ) public onlyRetailer {\n        require(isChain(_chainID), \"Chain doesn't exists\");\n        require(\n            keccak256(abi.encodePacked(_chainID)) != keccak256(abi.encodePacked(_productID)),\n            \"ChainID must be different to ProductID\"\n        );\n\n        products[_chainID][_productID] = _product;\n\n        retailerIds[msg.sender].chainIds.push(_chainID);\n        retailerIds[msg.sender].productIds.push(_productID);\n        chainProductIds[_chainID].push(_productID);\n        chains[_chainID].push(_product);\n\n        address retailer = products[_chainID][_productID].stakeholderAddress;\n        uint256 receivingTime = products[_chainID][_productID].receivingTime;\n        uint256 cookedTime = products[_chainID][_productID].cookedTime;\n\n        require(retailer == msg.sender && isPartner(retailer), \"invalid retailer address\");\n        require(\n            receivingTime < cookedTime,\n            \"invalid time\"\n        );\n\n        emit ProductCooked(retailer, _chainID, _productID, block.timestamp);\n    }\n}",
  "sourcePath": "/Users/sam/Documents/Projects/AGREO/agreo/Dapp/contracts/SChain.sol",
  "compiler": {
    "name": "solc",
    "version": "0.8.19+commit.7dd6d404.Emscripten.clang"
  },
  "schemaVersion": "3.4.9",
  "updatedAt": "2023-05-11T16:43:42.665Z",
  "networkType": "ethereum",
  "devdoc": {
    "kind": "dev",
    "methods": {},
    "version": 1
  },
  "userdoc": {
    "kind": "user",
    "methods": {},
    "version": 1
  }
}