{
  "contractName": "SChain",
  "abi": [
    {
      "anonymous": false,
      "inputs": [
        {
          "indexed": false,
          "internalType": "address",
          "name": "retailer",
          "type": "address"
        },
        {
          "indexed": false,
          "internalType": "string",
          "name": "chainId",
          "type": "string"
        },
        {
          "indexed": false,
          "internalType": "string",
          "name": "productId",
          "type": "string"
        },
        {
          "indexed": false,
          "internalType": "uint256",
          "name": "timestamp",
          "type": "uint256"
        }
      ],
      "name": "ProductCooked",
      "type": "event"
    },
    {
      "anonymous": false,
      "inputs": [
        {
          "indexed": false,
          "internalType": "address",
          "name": "distributor",
          "type": "address"
        },
        {
          "indexed": false,
          "internalType": "address",
          "name": "destinator",
          "type": "address"
        },
        {
          "indexed": false,
          "internalType": "string",
          "name": "chainId",
          "type": "string"
        },
        {
          "indexed": false,
          "internalType": "uint256",
          "name": "timestamp",
          "type": "uint256"
        }
      ],
      "name": "ProductDistributed",
      "type": "event"
    },
    {
      "anonymous": false,
      "inputs": [
        {
          "indexed": false,
          "internalType": "address",
          "name": "farmer",
          "type": "address"
        },
        {
          "indexed": false,
          "internalType": "string",
          "name": "chainId",
          "type": "string"
        },
        {
          "indexed": false,
          "internalType": "uint256",
          "name": "timestamp",
          "type": "uint256"
        }
      ],
      "name": "ProductRegistered",
      "type": "event"
    },
    {
      "anonymous": false,
      "inputs": [
        {
          "indexed": false,
          "internalType": "address",
          "name": "transporter",
          "type": "address"
        },
        {
          "indexed": false,
          "internalType": "address",
          "name": "destinator",
          "type": "address"
        },
        {
          "indexed": false,
          "internalType": "string",
          "name": "chainId",
          "type": "string"
        },
        {
          "indexed": false,
          "internalType": "uint256",
          "name": "timestamp",
          "type": "uint256"
        }
      ],
      "name": "ProductTransported",
      "type": "event"
    },
    {
      "inputs": [
        {
          "internalType": "string",
          "name": "",
          "type": "string"
        },
        {
          "internalType": "uint256",
          "name": "",
          "type": "uint256"
        }
      ],
      "name": "chainProductIds",
      "outputs": [
        {
          "internalType": "string",
          "name": "",
          "type": "string"
        }
      ],
      "stateMutability": "view",
      "type": "function",
      "constant": true
    },
    {
      "inputs": [
        {
          "internalType": "string",
          "name": "",
          "type": "string"
        },
        {
          "internalType": "uint256",
          "name": "",
          "type": "uint256"
        }
      ],
      "name": "chains",
      "outputs": [
        {
          "internalType": "string",
          "name": "productName",
          "type": "string"
        },
        {
          "internalType": "string",
          "name": "productType",
          "type": "string"
        },
        {
          "internalType": "string",
          "name": "productCategory",
          "type": "string"
        },
        {
          "internalType": "uint256",
          "name": "harvestingTime",
          "type": "uint256"
        },
        {
          "internalType": "uint256",
          "name": "packagingTime",
          "type": "uint256"
        },
        {
          "internalType": "uint256",
          "name": "departureTime",
          "type": "uint256"
        },
        {
          "internalType": "uint256",
          "name": "receivingTime",
          "type": "uint256"
        },
        {
          "internalType": "uint256",
          "name": "cookedTime",
          "type": "uint256"
        },
        {
          "internalType": "address",
          "name": "stakeholderAddress",
          "type": "address"
        },
        {
          "internalType": "address",
          "name": "transporterAddress",
          "type": "address"
        },
        {
          "internalType": "address",
          "name": "receiverAddress",
          "type": "address"
        }
      ],
      "stateMutability": "view",
      "type": "function",
      "constant": true
    },
    {
      "inputs": [
        {
          "internalType": "uint256",
          "name": "",
          "type": "uint256"
        }
      ],
      "name": "distributors",
      "outputs": [
        {
          "internalType": "address",
          "name": "",
          "type": "address"
        }
      ],
      "stateMutability": "view",
      "type": "function",
      "constant": true
    },
    {
      "inputs": [
        {
          "internalType": "uint256",
          "name": "",
          "type": "uint256"
        }
      ],
      "name": "farmers",
      "outputs": [
        {
          "internalType": "address",
          "name": "",
          "type": "address"
        }
      ],
      "stateMutability": "view",
      "type": "function",
      "constant": true
    },
    {
      "inputs": [
        {
          "internalType": "string",
          "name": "_chainID",
          "type": "string"
        }
      ],
      "name": "getChain",
      "outputs": [
        {
          "components": [
            {
              "internalType": "string",
              "name": "productName",
              "type": "string"
            },
            {
              "internalType": "string",
              "name": "productType",
              "type": "string"
            },
            {
              "internalType": "string",
              "name": "productCategory",
              "type": "string"
            },
            {
              "internalType": "uint256",
              "name": "harvestingTime",
              "type": "uint256"
            },
            {
              "internalType": "uint256",
              "name": "packagingTime",
              "type": "uint256"
            },
            {
              "internalType": "uint256",
              "name": "departureTime",
              "type": "uint256"
            },
            {
              "internalType": "uint256",
              "name": "receivingTime",
              "type": "uint256"
            },
            {
              "internalType": "uint256",
              "name": "cookedTime",
              "type": "uint256"
            },
            {
              "internalType": "address",
              "name": "stakeholderAddress",
              "type": "address"
            },
            {
              "internalType": "address",
              "name": "transporterAddress",
              "type": "address"
            },
            {
              "internalType": "address",
              "name": "receiverAddress",
              "type": "address"
            }
          ],
          "internalType": "struct ISChain.Product[]",
          "name": "chain",
          "type": "tuple[]"
        }
      ],
      "stateMutability": "view",
      "type": "function",
      "constant": true
    },
    {
      "inputs": [],
      "name": "getChainIds",
      "outputs": [
        {
          "internalType": "string[]",
          "name": "",
          "type": "string[]"
        }
      ],
      "stateMutability": "view",
      "type": "function",
      "constant": true
    },
    {
      "inputs": [
        {
          "internalType": "string",
          "name": "_chainID",
          "type": "string"
        },
        {
          "internalType": "string",
          "name": "_productID",
          "type": "string"
        }
      ],
      "name": "getProduct",
      "outputs": [
        {
          "components": [
            {
              "internalType": "string",
              "name": "productName",
              "type": "string"
            },
            {
              "internalType": "string",
              "name": "productType",
              "type": "string"
            },
            {
              "internalType": "string",
              "name": "productCategory",
              "type": "string"
            },
            {
              "internalType": "uint256",
              "name": "harvestingTime",
              "type": "uint256"
            },
            {
              "internalType": "uint256",
              "name": "packagingTime",
              "type": "uint256"
            },
            {
              "internalType": "uint256",
              "name": "departureTime",
              "type": "uint256"
            },
            {
              "internalType": "uint256",
              "name": "receivingTime",
              "type": "uint256"
            },
            {
              "internalType": "uint256",
              "name": "cookedTime",
              "type": "uint256"
            },
            {
              "internalType": "address",
              "name": "stakeholderAddress",
              "type": "address"
            },
            {
              "internalType": "address",
              "name": "transporterAddress",
              "type": "address"
            },
            {
              "internalType": "address",
              "name": "receiverAddress",
              "type": "address"
            }
          ],
          "internalType": "struct ISChain.Product",
          "name": "",
          "type": "tuple"
        }
      ],
      "stateMutability": "view",
      "type": "function",
      "constant": true
    },
    {
      "inputs": [
        {
          "internalType": "string",
          "name": "_chainID",
          "type": "string"
        }
      ],
      "name": "getProductIds",
      "outputs": [
        {
          "internalType": "string[]",
          "name": "",
          "type": "string[]"
        }
      ],
      "stateMutability": "view",
      "type": "function",
      "constant": true
    },
    {
      "inputs": [
        {
          "internalType": "string",
          "name": "_chainId",
          "type": "string"
        }
      ],
      "name": "isChain",
      "outputs": [
        {
          "internalType": "bool",
          "name": "",
          "type": "bool"
        }
      ],
      "stateMutability": "view",
      "type": "function",
      "constant": true
    },
    {
      "inputs": [
        {
          "internalType": "address",
          "name": "_partnerAddress",
          "type": "address"
        }
      ],
      "name": "isPartner",
      "outputs": [
        {
          "internalType": "bool",
          "name": "",
          "type": "bool"
        }
      ],
      "stateMutability": "view",
      "type": "function",
      "constant": true
    },
    {
      "inputs": [
        {
          "internalType": "uint256",
          "name": "",
          "type": "uint256"
        }
      ],
      "name": "listOfChainIds",
      "outputs": [
        {
          "internalType": "string",
          "name": "",
          "type": "string"
        }
      ],
      "stateMutability": "view",
      "type": "function",
      "constant": true
    },
    {
      "inputs": [],
      "name": "numberOfChains",
      "outputs": [
        {
          "internalType": "uint256",
          "name": "",
          "type": "uint256"
        }
      ],
      "stateMutability": "view",
      "type": "function",
      "constant": true
    },
    {
      "inputs": [
        {
          "internalType": "address",
          "name": "",
          "type": "address"
        }
      ],
      "name": "partners",
      "outputs": [
        {
          "internalType": "uint256",
          "name": "id",
          "type": "uint256"
        },
        {
          "internalType": "uint256",
          "name": "categoryId",
          "type": "uint256"
        },
        {
          "internalType": "string",
          "name": "category",
          "type": "string"
        },
        {
          "internalType": "string",
          "name": "name",
          "type": "string"
        },
        {
          "internalType": "string",
          "name": "location",
          "type": "string"
        },
        {
          "internalType": "string",
          "name": "url",
          "type": "string"
        },
        {
          "internalType": "string",
          "name": "email",
          "type": "string"
        },
        {
          "internalType": "uint256",
          "name": "phoneNumber",
          "type": "uint256"
        },
        {
          "internalType": "address",
          "name": "partnerAddress",
          "type": "address"
        },
        {
          "internalType": "bool",
          "name": "isPartner",
          "type": "bool"
        }
      ],
      "stateMutability": "view",
      "type": "function",
      "constant": true
    },
    {
      "inputs": [
        {
          "internalType": "uint256",
          "name": "",
          "type": "uint256"
        }
      ],
      "name": "retailers",
      "outputs": [
        {
          "internalType": "address",
          "name": "",
          "type": "address"
        }
      ],
      "stateMutability": "view",
      "type": "function",
      "constant": true
    },
    {
      "inputs": [
        {
          "internalType": "uint256",
          "name": "",
          "type": "uint256"
        }
      ],
      "name": "transporters",
      "outputs": [
        {
          "internalType": "address",
          "name": "",
          "type": "address"
        }
      ],
      "stateMutability": "view",
      "type": "function",
      "constant": true
    },
    {
      "inputs": [
        {
          "internalType": "uint256",
          "name": "_categoryId",
          "type": "uint256"
        },
        {
          "internalType": "string",
          "name": "_name",
          "type": "string"
        },
        {
          "internalType": "string",
          "name": "_location",
          "type": "string"
        },
        {
          "internalType": "string",
          "name": "_url",
          "type": "string"
        },
        {
          "internalType": "string",
          "name": "_email",
          "type": "string"
        },
        {
          "internalType": "uint256",
          "name": "_phoneNumber",
          "type": "uint256"
        }
      ],
      "name": "partnerRegistration",
      "outputs": [],
      "stateMutability": "nonpayable",
      "type": "function"
    },
    {
      "inputs": [
        {
          "internalType": "string",
          "name": "_chainID",
          "type": "string"
        },
        {
          "internalType": "string",
          "name": "_productID",
          "type": "string"
        },
        {
          "components": [
            {
              "internalType": "string",
              "name": "productName",
              "type": "string"
            },
            {
              "internalType": "string",
              "name": "productType",
              "type": "string"
            },
            {
              "internalType": "string",
              "name": "productCategory",
              "type": "string"
            },
            {
              "internalType": "uint256",
              "name": "harvestingTime",
              "type": "uint256"
            },
            {
              "internalType": "uint256",
              "name": "packagingTime",
              "type": "uint256"
            },
            {
              "internalType": "uint256",
              "name": "departureTime",
              "type": "uint256"
            },
            {
              "internalType": "uint256",
              "name": "receivingTime",
              "type": "uint256"
            },
            {
              "internalType": "uint256",
              "name": "cookedTime",
              "type": "uint256"
            },
            {
              "internalType": "address",
              "name": "stakeholderAddress",
              "type": "address"
            },
            {
              "internalType": "address",
              "name": "transporterAddress",
              "type": "address"
            },
            {
              "internalType": "address",
              "name": "receiverAddress",
              "type": "address"
            }
          ],
          "internalType": "struct ISChain.Product",
          "name": "_product",
          "type": "tuple"
        }
      ],
      "name": "productRegistration",
      "outputs": [],
      "stateMutability": "nonpayable",
      "type": "function"
    },
    {
      "inputs": [
        {
          "internalType": "string",
          "name": "_chainID",
          "type": "string"
        },
        {
          "internalType": "string",
          "name": "_productID",
          "type": "string"
        },
        {
          "components": [
            {
              "internalType": "string",
              "name": "productName",
              "type": "string"
            },
            {
              "internalType": "string",
              "name": "productType",
              "type": "string"
            },
            {
              "internalType": "string",
              "name": "productCategory",
              "type": "string"
            },
            {
              "internalType": "uint256",
              "name": "harvestingTime",
              "type": "uint256"
            },
            {
              "internalType": "uint256",
              "name": "packagingTime",
              "type": "uint256"
            },
            {
              "internalType": "uint256",
              "name": "departureTime",
              "type": "uint256"
            },
            {
              "internalType": "uint256",
              "name": "receivingTime",
              "type": "uint256"
            },
            {
              "internalType": "uint256",
              "name": "cookedTime",
              "type": "uint256"
            },
            {
              "internalType": "address",
              "name": "stakeholderAddress",
              "type": "address"
            },
            {
              "internalType": "address",
              "name": "transporterAddress",
              "type": "address"
            },
            {
              "internalType": "address",
              "name": "receiverAddress",
              "type": "address"
            }
          ],
          "internalType": "struct ISChain.Product",
          "name": "_product",
          "type": "tuple"
        }
      ],
      "name": "ProductTransportation",
      "outputs": [],
      "stateMutability": "nonpayable",
      "type": "function"
    },
    {
      "inputs": [
        {
          "internalType": "string",
          "name": "_chainID",
          "type": "string"
        },
        {
          "internalType": "string",
          "name": "_productID",
          "type": "string"
        },
        {
          "components": [
            {
              "internalType": "string",
              "name": "productName",
              "type": "string"
            },
            {
              "internalType": "string",
              "name": "productType",
              "type": "string"
            },
            {
              "internalType": "string",
              "name": "productCategory",
              "type": "string"
            },
            {
              "internalType": "uint256",
              "name": "harvestingTime",
              "type": "uint256"
            },
            {
              "internalType": "uint256",
              "name": "packagingTime",
              "type": "uint256"
            },
            {
              "internalType": "uint256",
              "name": "departureTime",
              "type": "uint256"
            },
            {
              "internalType": "uint256",
              "name": "receivingTime",
              "type": "uint256"
            },
            {
              "internalType": "uint256",
              "name": "cookedTime",
              "type": "uint256"
            },
            {
              "internalType": "address",
              "name": "stakeholderAddress",
              "type": "address"
            },
            {
              "internalType": "address",
              "name": "transporterAddress",
              "type": "address"
            },
            {
              "internalType": "address",
              "name": "receiverAddress",
              "type": "address"
            }
          ],
          "internalType": "struct ISChain.Product",
          "name": "_product",
          "type": "tuple"
        }
      ],
      "name": "productDistribution",
      "outputs": [],
      "stateMutability": "nonpayable",
      "type": "function"
    },
    {
      "inputs": [
        {
          "internalType": "string",
          "name": "_chainID",
          "type": "string"
        },
        {
          "internalType": "string",
          "name": "_productID",
          "type": "string"
        },
        {
          "components": [
            {
              "internalType": "string",
              "name": "productName",
              "type": "string"
            },
            {
              "internalType": "string",
              "name": "productType",
              "type": "string"
            },
            {
              "internalType": "string",
              "name": "productCategory",
              "type": "string"
            },
            {
              "internalType": "uint256",
              "name": "harvestingTime",
              "type": "uint256"
            },
            {
              "internalType": "uint256",
              "name": "packagingTime",
              "type": "uint256"
            },
            {
              "internalType": "uint256",
              "name": "departureTime",
              "type": "uint256"
            },
            {
              "internalType": "uint256",
              "name": "receivingTime",
              "type": "uint256"
            },
            {
              "internalType": "uint256",
              "name": "cookedTime",
              "type": "uint256"
            },
            {
              "internalType": "address",
              "name": "stakeholderAddress",
              "type": "address"
            },
            {
              "internalType": "address",
              "name": "transporterAddress",
              "type": "address"
            },
            {
              "internalType": "address",
              "name": "receiverAddress",
              "type": "address"
            }
          ],
          "internalType": "struct ISChain.Product",
          "name": "_product",
          "type": "tuple"
        }
      ],
      "name": "ReailerProduct",
      "outputs": [],
      "stateMutability": "nonpayable",
      "type": "function"
    }
  ],
  "bytecode": "0x608060405234801561001057600080fd5b506136ea806100206000396000f3fe608060405234801561001057600080fd5b506004361061012c5760003560e01c806395c33652116100ad578063e0f6cc0711610071578063e0f6cc07146102d7578063e49771b5146102ea578063f39c7677146102fd578063fbb4556214610310578063ff6a216d1461032357600080fd5b806395c336521461023e57806396de42e514610267578063b9aab3f914610291578063c4802a1f146102b1578063d8c41d42146102c457600080fd5b80634cc1c2bb116100f45780634cc1c2bb146101c257806350b492ba146101e2578063897ec7df146101f55780638afdd669146102085780638c0f9aac1461021b57600080fd5b8063069aaa77146101315780631d7763231461014d57806326d17ac11461016257806329c2a8771461018257806338a6828b146101ad575b600080fd5b61013a60095481565b6040519081526020015b60405180910390f35b610155610336565b6040516101449190612c7a565b610175610170366004612cdc565b61040f565b6040516101449190612cf5565b610195610190366004612cdc565b6104bb565b6040516001600160a01b039091168152602001610144565b6101c06101bb366004612ddc565b6104e5565b005b6101d56101d0366004612e9b565b61088c565b6040516101449190612fa1565b6101956101f0366004612cdc565b610b27565b610195610203366004612cdc565b610b37565b610195610216366004612cdc565b610b47565b61022e610229366004613012565b610b57565b6040519015158152602001610144565b61025161024c366004613012565b610b95565b6040516101449a9998979695949392919061302d565b61027a6102753660046130cd565b610e9a565b6040516101449b9a99989796959493929190613112565b6102a461029f3660046131a1565b6110cb565b6040516101449190613205565b6101c06102bf366004613218565b6113aa565b6101556102d2366004612e9b565b611934565b61022e6102e5366004612e9b565b611a20565b6101c06102f8366004613218565b611a4b565b61017561030b3660046130cd565b611fc5565b6101c061031e366004613218565b61200c565b6101c0610331366004613218565b612717565b6060600e805480602002602001604051908101604052809291908181526020016000905b8282101561040657838290600052602060002001805461037990613387565b80601f01602080910402602001604051908101604052809291908181526020018280546103a590613387565b80156103f25780601f106103c7576101008083540402835291602001916103f2565b820191906000526020600020905b8154815290600101906020018083116103d557829003601f168201915b50505050508152602001906001019061035a565b50505050905090565b600e818154811061041f57600080fd5b90600052602060002001600091509050805461043a90613387565b80601f016020809104026020016040519081016040528092919081815260200182805461046690613387565b80156104b35780601f10610488576101008083540402835291602001916104b3565b820191906000526020600020905b81548152906001019060200180831161049657829003601f168201915b505050505081565b600b81815481106104cb57600080fd5b6000918252602090912001546001600160a01b0316905081565b600f80549060006104f5836133d7565b9091555050600f543360009081526001602081905260409091209182558101879055600301610524868261343b565b50336000908152600160205260409020600401610541858261343b565b5033600090815260016020526040902060050161055e848261343b565b5033600090815260016020526040902060060161057b838261343b565b5033600081815260016020526040812060078101849055600801805460ff60a01b199093166001600160a81b031990931692909217600160a01b179091558690036106455760408051808201825260068152652330b936b2b960d11b602080830191909152336000908152600190915291909120600201906105fd908261343b565b50600a80546001810182556000919091527fc65a7bb8d6351c1cf70c95a316cc6a92839c986682d98bc35f958f4883f9d2a80180546001600160a01b03191633179055610884565b856001036106d757604080518082018252600b81526a2a3930b739b837b93a32b960a91b6020808301919091523360009081526001909152919091206002019061068f908261343b565b50600b80546001810182556000919091527f0175b7a638427703f0dbe7bb9bbf987a2551717b34e79f33b5b1008d1fa01db90180546001600160a01b03191633179055610884565b8560020361076957604080518082018252600b81526a2234b9ba3934b13aba37b960a91b60208083019190915233600090815260019091529190912060020190610721908261343b565b50600c80546001810182556000919091527fdf6966c971051c3d54ec59162606531493a51404a002842f56009d7e5cf4a8c70180546001600160a01b03191633179055610884565b856003036107f85760408051808201825260088152672932ba30b4b632b960c11b602080830191909152336000908152600190915291909120600201906107b0908261343b565b50600d80546001810182556000919091527fd7b6990105719101dabeb77144f2a3385c8033acd3af97e9423a695e81ad1eb50180546001600160a01b03191633179055610884565b60408051808201825260078152662ab735b737bbb760c91b60208083019190915233600090815260019091529190912060020190610836908261343b565b5060405162461bcd60e51b815260206004820152601760248201527f556e6b6e6f7720706172746e65722063617465676f727900000000000000000060448201526064015b60405180910390fd5b505050505050565b606060048260405161089e91906134fb565b9081526020016040518091039020805480602002602001604051908101604052809291908181526020016000905b82821015610b1c57838290600052602060002090600b02016040518061016001604052908160008201805461090090613387565b80601f016020809104026020016040519081016040528092919081815260200182805461092c90613387565b80156109795780601f1061094e57610100808354040283529160200191610979565b820191906000526020600020905b81548152906001019060200180831161095c57829003601f168201915b5050505050815260200160018201805461099290613387565b80601f01602080910402602001604051908101604052809291908181526020018280546109be90613387565b8015610a0b5780601f106109e057610100808354040283529160200191610a0b565b820191906000526020600020905b8154815290600101906020018083116109ee57829003601f168201915b50505050508152602001600282018054610a2490613387565b80601f0160208091040260200160405190810160405280929190818152602001828054610a5090613387565b8015610a9d5780601f10610a7257610100808354040283529160200191610a9d565b820191906000526020600020905b815481529060010190602001808311610a8057829003601f168201915b50505091835250506003820154602080830191909152600483015460408301526005830154606083015260068301546080830152600783015460a083015260088301546001600160a01b0390811660c08401526009840154811660e0840152600a909301549092166101009091015290825260019290920191016108cc565b505050509050919050565b600c81815481106104cb57600080fd5b600d81815481106104cb57600080fd5b600a81815481106104cb57600080fd5b60006001600160a01b038216610b6c57600080fd5b506001600160a01b0316600090815260016020526040902060080154600160a01b900460ff1690565b6001602081905260009182526040909120805491810154600282018054919291610bbe90613387565b80601f0160208091040260200160405190810160405280929190818152602001828054610bea90613387565b8015610c375780601f10610c0c57610100808354040283529160200191610c37565b820191906000526020600020905b815481529060010190602001808311610c1a57829003601f168201915b505050505090806003018054610c4c90613387565b80601f0160208091040260200160405190810160405280929190818152602001828054610c7890613387565b8015610cc55780601f10610c9a57610100808354040283529160200191610cc5565b820191906000526020600020905b815481529060010190602001808311610ca857829003601f168201915b505050505090806004018054610cda90613387565b80601f0160208091040260200160405190810160405280929190818152602001828054610d0690613387565b8015610d535780601f10610d2857610100808354040283529160200191610d53565b820191906000526020600020905b815481529060010190602001808311610d3657829003601f168201915b505050505090806005018054610d6890613387565b80601f0160208091040260200160405190810160405280929190818152602001828054610d9490613387565b8015610de15780601f10610db657610100808354040283529160200191610de1565b820191906000526020600020905b815481529060010190602001808311610dc457829003601f168201915b505050505090806006018054610df690613387565b80601f0160208091040260200160405190810160405280929190818152602001828054610e2290613387565b8015610e6f5780601f10610e4457610100808354040283529160200191610e6f565b820191906000526020600020905b815481529060010190602001808311610e5257829003601f168201915b5050505060078301546008909301549192916001600160a01b0381169150600160a01b900460ff168a565b81516020818401810180516004825292820191850191909120919052805482908110610ec557600080fd5b90600052602060002090600b020160009150915050806000018054610ee990613387565b80601f0160208091040260200160405190810160405280929190818152602001828054610f1590613387565b8015610f625780601f10610f3757610100808354040283529160200191610f62565b820191906000526020600020905b815481529060010190602001808311610f4557829003601f168201915b505050505090806001018054610f7790613387565b80601f0160208091040260200160405190810160405280929190818152602001828054610fa390613387565b8015610ff05780601f10610fc557610100808354040283529160200191610ff0565b820191906000526020600020905b815481529060010190602001808311610fd357829003601f168201915b50505050509080600201805461100590613387565b80601f016020809104026020016040519081016040528092919081815260200182805461103190613387565b801561107e5780601f106110535761010080835404028352916020019161107e565b820191906000526020600020905b81548152906001019060200180831161106157829003601f168201915b505050506003830154600484015460058501546006860154600787015460088801546009890154600a90990154979895979496509294919390926001600160a01b0390811692811691168b565b611143604051806101600160405280606081526020016060815260200160608152602001600081526020016000815260200160008152602001600081526020016000815260200160006001600160a01b0316815260200160006001600160a01b0316815260200160006001600160a01b031681525090565b60008360405161115391906134fb565b90815260200160405180910390208260405161116f91906134fb565b90815260200160405180910390206040518061016001604052908160008201805461119990613387565b80601f01602080910402602001604051908101604052809291908181526020018280546111c590613387565b80156112125780601f106111e757610100808354040283529160200191611212565b820191906000526020600020905b8154815290600101906020018083116111f557829003601f168201915b5050505050815260200160018201805461122b90613387565b80601f016020809104026020016040519081016040528092919081815260200182805461125790613387565b80156112a45780601f10611279576101008083540402835291602001916112a4565b820191906000526020600020905b81548152906001019060200180831161128757829003601f168201915b505050505081526020016002820180546112bd90613387565b80601f01602080910402602001604051908101604052809291908181526020018280546112e990613387565b80156113365780601f1061130b57610100808354040283529160200191611336565b820191906000526020600020905b81548152906001019060200180831161131957829003601f168201915b505050918352505060038201546020820152600482015460408201526005820154606082015260068201546080820152600782015460a082015260088201546001600160a01b0390811660c08301526009830154811660e0830152600a909201549091166101009091015290505b92915050565b3360009081526001602081905260409091208101541461140c5760405162461bcd60e51b815260206004820152601960248201527f596f75206d7573742062652061207472616e73706f7274657200000000000000604482015260640161087b565b61141583611a20565b6114315760405162461bcd60e51b815260040161087b90613517565b8160405160200161144291906134fb565b604051602081830303815290604052805190602001208360405160200161146991906134fb565b604051602081830303815290604052805190602001200361149c5760405162461bcd60e51b815260040161087b90613545565b806000846040516114ad91906134fb565b9081526020016040518091039020836040516114c991906134fb565b908152604051908190036020019020815181906114e6908261343b565b50602082015160018201906114fb908261343b565b5060408201516002820190611510908261343b565b50606082015160038201556080820151600482015560a0820151600582015560c082015160068083019190915560e083015160078301556101008301516008830180546001600160a01b03199081166001600160a01b0393841617909155610120850151600985018054831691841691909117905561014090940151600a90930180549094169216919091179091553360009081526020918252604081208054600181018255908252919020016115c7848261343b565b50336000908152600660209081526040822060019081018054918201815583529120016115f4838261343b565b5060038360405161160591906134fb565b908152604051602091819003820190208054600181018255600091825291902001611630838261343b565b5060048360405161164191906134fb565b908152604051602091819003820190208054600181018255600091825291902082518392600b02909101908190611678908261343b565b506020820151600182019061168d908261343b565b50604082015160028201906116a2908261343b565b50606082015160038201556080820151600482015560a0820151600582015560c0820151600682015560e082015160078201556101008201516008820180546001600160a01b03199081166001600160a01b0393841617909155610120840151600984018054831691841691909117905561014090930151600a90920180549093169116179055604051600090819061173c9086906134fb565b90815260200160405180910390208360405161175891906134fb565b908152604051908190036020018120600801546001600160a01b0316915060009081906117869087906134fb565b9081526020016040518091039020846040516117a291906134fb565b908152604051908190036020018120600a01546001600160a01b0316915060009081906117d09088906134fb565b9081526020016040518091039020856040516117ec91906134fb565b90815260200160405180910390206005015490506000808760405161181191906134fb565b90815260200160405180910390208660405161182d91906134fb565b9081526040519081900360200190206006015490506001600160a01b0384163314801561185e575061185e84610b57565b6118aa5760405162461bcd60e51b815260206004820152601b60248201527f696e76616c6964207472616e73706f7274657220616464726573730000000000604482015260640161087b565b6118b383610b57565b6118cf5760405162461bcd60e51b815260040161087b9061358b565b8181106118ee5760405162461bcd60e51b815260040161087b906135c2565b7f29defadbb7e6445cd0fdf6d7187dadfb29a7f250bb0dd627fbb49a47e00c85148484894260405161192394939291906135e8565b60405180910390a150505050505050565b606060038260405161194691906134fb565b9081526020016040518091039020805480602002602001604051908101604052809291908181526020016000905b82821015610b1c57838290600052602060002001805461199390613387565b80601f01602080910402602001604051908101604052809291908181526020018280546119bf90613387565b8015611a0c5780601f106119e157610100808354040283529160200191611a0c565b820191906000526020600020905b8154815290600101906020018083116119ef57829003601f168201915b505050505081526020019060010190611974565b6000600282604051611a3291906134fb565b9081526040519081900360200190205460ff1692915050565b3360009081526001602081905260409091200154600214611aae5760405162461bcd60e51b815260206004820152601960248201527f596f75206d7573742062652061206469737472696275746f7200000000000000604482015260640161087b565b611ab783611a20565b611ad35760405162461bcd60e51b815260040161087b90613517565b81604051602001611ae491906134fb565b6040516020818303038152906040528051906020012083604051602001611b0b91906134fb565b6040516020818303038152906040528051906020012003611b3e5760405162461bcd60e51b815260040161087b90613545565b80600084604051611b4f91906134fb565b908152602001604051809103902083604051611b6b91906134fb565b90815260405190819003602001902081518190611b88908261343b565b5060208201516001820190611b9d908261343b565b5060408201516002820190611bb2908261343b565b50606082015160038201556080820151600482015560a0820151600582015560c0820151600682015560e08201516007808301919091556101008301516008830180546001600160a01b03199081166001600160a01b0393841617909155610120850151600985018054831691841691909117905561014090940151600a9093018054909416921691909117909155336000908152602091825260408120805460018101825590825291902001611c69848261343b565b5033600090815260076020908152604082206001908101805491820181558352912001611c96838261343b565b50600383604051611ca791906134fb565b908152604051602091819003820190208054600181018255600091825291902001611cd2838261343b565b50600483604051611ce391906134fb565b908152604051602091819003820190208054600181018255600091825291902082518392600b02909101908190611d1a908261343b565b5060208201516001820190611d2f908261343b565b5060408201516002820190611d44908261343b565b50606082015160038201556080820151600482015560a0820151600582015560c0820151600682015560e082015160078201556101008201516008820180546001600160a01b03199081166001600160a01b0393841617909155610120840151600984018054831691841691909117905561014090930151600a909201805490931691161790556040516000908190611dde9086906134fb565b908152602001604051809103902083604051611dfa91906134fb565b908152604051908190036020018120600801546001600160a01b031691506000908190611e289087906134fb565b908152602001604051809103902084604051611e4491906134fb565b908152604051908190036020018120600a01546001600160a01b031691506000908190611e729088906134fb565b908152602001604051809103902085604051611e8e91906134fb565b908152602001604051809103902060050154905060008087604051611eb391906134fb565b908152602001604051809103902086604051611ecf91906134fb565b9081526040519081900360200190206006015490506001600160a01b03841633148015611f005750611f0084610b57565b611f4c5760405162461bcd60e51b815260206004820152601b60248201527f696e76616c6964206469737472696275746f7220616464726573730000000000604482015260640161087b565b611f5583610b57565b611f715760405162461bcd60e51b815260040161087b9061358b565b818110611f905760405162461bcd60e51b815260040161087b906135c2565b7f0ad6cb6ac099d0d0efc139f6d31e4b4314d93fd679f926e6c9b0f950bbc283b18484894260405161192394939291906135e8565b81516020818401810180516003825292820191850191909120919052805482908110611ff057600080fd5b9060005260206000200160009150915050805461043a90613387565b3360009081526001602081905260409091200154156120645760405162461bcd60e51b81526020600482015260146024820152732cb7ba9036bab9ba1031329030903330b936b2b960611b604482015260640161087b565b61206d83611a20565b156120b15760405162461bcd60e51b8152602060048201526014602482015273436861696e20616c72656164792065786973747360601b604482015260640161087b565b816040516020016120c291906134fb565b60405160208183030381529060405280519060200120836040516020016120e991906134fb565b604051602081830303815290604052805190602001200361211c5760405162461bcd60e51b815260040161087b90613545565b600160028460405161212e91906134fb565b908152604051908190036020018120805492151560ff1990931692909217909155819060009061215f9086906134fb565b90815260200160405180910390208360405161217b91906134fb565b90815260405190819003602001902081518190612198908261343b565b50602082015160018201906121ad908261343b565b50604082015160028201906121c2908261343b565b50606082015160038201556080820151600482015560a0820151600582015560c0820151600682015560e082015160078201556101008201516008820180546001600160a01b039283166001600160a01b031991821617909155610120840151600980850180549285169284169290921790915561014090940151600a90930180549390921692169190911790555461225c816001613625565b600955600e80546001810182556000919091527fbb7b4a454dc3493923482f07822329ed19e8244eff582cc204f8554c3620c3fd0161229b858261343b565b50336000908152600560209081526040822080546001810182559083529120016122c5858261343b565b50336000908152600560209081526040822060019081018054918201815583529120016122f2848261343b565b5060038460405161230391906134fb565b90815260405160209181900382019020805460018101825560009182529190200161232e848261343b565b5060048460405161233f91906134fb565b908152604051602091819003820190208054600181018255600091825291902083518492600b02909101908190612376908261343b565b506020820151600182019061238b908261343b565b50604082015160028201906123a0908261343b565b50606082015160038201556080820151600482015560a0820151600582015560c0820151600682015560e082015160078201556101008201516008820180546001600160a01b03199081166001600160a01b0393841617909155610120840151600984018054831691841691909117905561014090930151600a90920180549093169116179055604051600090819061243a9087906134fb565b90815260200160405180910390208460405161245691906134fb565b908152604051908190036020018120600801546001600160a01b0316915060009081906124849088906134fb565b9081526020016040518091039020856040516124a091906134fb565b908152604051908190036020018120600a01546001600160a01b0316915060009081906124ce9089906134fb565b9081526020016040518091039020866040516124ea91906134fb565b908152604051908190036020018120600901546001600160a01b031691506000908190612518908a906134fb565b90815260200160405180910390208760405161253491906134fb565b90815260200160405180910390206003015490506000808960405161255991906134fb565b90815260200160405180910390208860405161257591906134fb565b90815260200160405180910390206004015490506000808a60405161259a91906134fb565b9081526020016040518091039020896040516125b691906134fb565b9081526040519081900360200190206005015490506001600160a01b038616331480156125e757506125e786610b57565b61262c5760405162461bcd60e51b8152602060048201526016602482015275696e76616c6964206661726d6572206164647265737360501b604482015260640161087b565b61263584610b57565b6126815760405162461bcd60e51b815260206004820152601b60248201527f696e76616c6964207472616e73706f7274657220616464726573730000000000604482015260640161087b565b61268a85610b57565b6126a65760405162461bcd60e51b815260040161087b9061358b565b81831080156126b457508082105b6126d05760405162461bcd60e51b815260040161087b906135c2565b7f43c1461a2ae49ffb609132955604e30e51b2789a29d686d80ae1dba65a8d9012868b4260405161270393929190613638565b60405180910390a150505050505050505050565b33600090815260016020819052604090912001546003146127735760405162461bcd60e51b81526020600482015260166024820152752cb7ba9036bab9ba1031329030903932ba30b4b632b960511b604482015260640161087b565b61277c83611a20565b6127985760405162461bcd60e51b815260040161087b90613517565b816040516020016127a991906134fb565b60405160208183030381529060405280519060200120836040516020016127d091906134fb565b60405160208183030381529060405280519060200120036128035760405162461bcd60e51b815260040161087b90613545565b8060008460405161281491906134fb565b90815260200160405180910390208360405161283091906134fb565b9081526040519081900360200190208151819061284d908261343b565b5060208201516001820190612862908261343b565b5060408201516002820190612877908261343b565b50606082015160038201556080820151600482015560a0820151600582015560c0820151600682015560e08201516007820155610100820151600880830180546001600160a01b03199081166001600160a01b0394851617909155610120850151600985018054831691851691909117905561014090940151600a9093018054909416929091169190911790915533600090815260209182526040812080546001810182559082529190200161292d848261343b565b503360009081526008602090815260408220600190810180549182018155835291200161295a838261343b565b5060038360405161296b91906134fb565b908152604051602091819003820190208054600181018255600091825291902001612996838261343b565b506004836040516129a791906134fb565b908152604051602091819003820190208054600181018255600091825291902082518392600b029091019081906129de908261343b565b50602082015160018201906129f3908261343b565b5060408201516002820190612a08908261343b565b50606082015160038201556080820151600482015560a0820151600582015560c0820151600682015560e082015160078201556101008201516008820180546001600160a01b03199081166001600160a01b0393841617909155610120840151600984018054831691841691909117905561014090930151600a909201805490931691161790556040516000908190612aa29086906134fb565b908152602001604051809103902083604051612abe91906134fb565b908152604051908190036020018120600801546001600160a01b031691506000908190612aec9087906134fb565b908152602001604051809103902084604051612b0891906134fb565b908152602001604051809103902060060154905060008086604051612b2d91906134fb565b908152602001604051809103902085604051612b4991906134fb565b9081526040519081900360200190206007015490506001600160a01b03831633148015612b7a5750612b7a83610b57565b612bc65760405162461bcd60e51b815260206004820152601860248201527f696e76616c69642072657461696c657220616464726573730000000000000000604482015260640161087b565b808210612be55760405162461bcd60e51b815260040161087b906135c2565b7f31c26ffd85346c935c43bbbb4ed10975e3694ebd1405e765e8d285c51a9afbc083878742604051612c1a949392919061366c565b60405180910390a1505050505050565b60005b83811015612c45578181015183820152602001612c2d565b50506000910152565b60008151808452612c66816020860160208601612c2a565b601f01601f19169290920160200192915050565b6000602080830181845280855180835260408601915060408160051b870101925083870160005b82811015612ccf57603f19888603018452612cbd858351612c4e565b94509285019290850190600101612ca1565b5092979650505050505050565b600060208284031215612cee57600080fd5b5035919050565b602081526000612d086020830184612c4e565b9392505050565b634e487b7160e01b600052604160045260246000fd5b604051610160810167ffffffffffffffff81118282101715612d4957612d49612d0f565b60405290565b600082601f830112612d6057600080fd5b813567ffffffffffffffff80821115612d7b57612d7b612d0f565b604051601f8301601f19908116603f01168101908282118183101715612da357612da3612d0f565b81604052838152866020858801011115612dbc57600080fd5b836020870160208301376000602085830101528094505050505092915050565b60008060008060008060c08789031215612df557600080fd5b86359550602087013567ffffffffffffffff80821115612e1457600080fd5b612e208a838b01612d4f565b96506040890135915080821115612e3657600080fd5b612e428a838b01612d4f565b95506060890135915080821115612e5857600080fd5b612e648a838b01612d4f565b94506080890135915080821115612e7a57600080fd5b50612e8789828a01612d4f565b92505060a087013590509295509295509295565b600060208284031215612ead57600080fd5b813567ffffffffffffffff811115612ec457600080fd5b612ed084828501612d4f565b949350505050565b60006101608251818552612eee82860182612c4e565b91505060208301518482036020860152612f088282612c4e565b91505060408301518482036040860152612f228282612c4e565b915050606083015160608501526080830151608085015260a083015160a085015260c083015160c085015260e083015160e085015261010080840151612f72828701826001600160a01b03169052565b5050610120838101516001600160a01b0390811691860191909152610140938401511692909301919091525090565b6000602080830181845280855180835260408601915060408160051b870101925083870160005b82811015612ccf57603f19888603018452612fe4858351612ed8565b94509285019290850190600101612fc8565b80356001600160a01b038116811461300d57600080fd5b919050565b60006020828403121561302457600080fd5b612d0882612ff6565b60006101408c83528b602084015280604084015261304d8184018c612c4e565b90508281036060840152613061818b612c4e565b90508281036080840152613075818a612c4e565b905082810360a08401526130898189612c4e565b905082810360c084015261309d8188612c4e565b60e084019690965250506001600160a01b0392909216610100830152151561012090910152979650505050505050565b600080604083850312156130e057600080fd5b823567ffffffffffffffff8111156130f757600080fd5b61310385828601612d4f565b95602094909401359450505050565b60006101608083526131268184018f612c4e565b9050828103602084015261313a818e612c4e565b9050828103604084015261314e818d612c4e565b606084019b909b525050608081019790975260a087019590955260c086019390935260e08501919091526001600160a01b0390811661010085015290811661012084015216610140909101529392505050565b600080604083850312156131b457600080fd5b823567ffffffffffffffff808211156131cc57600080fd5b6131d886838701612d4f565b935060208501359150808211156131ee57600080fd5b506131fb85828601612d4f565b9150509250929050565b602081526000612d086020830184612ed8565b60008060006060848603121561322d57600080fd5b833567ffffffffffffffff8082111561324557600080fd5b61325187838801612d4f565b9450602086013591508082111561326757600080fd5b61327387838801612d4f565b9350604086013591508082111561328957600080fd5b90850190610160828803121561329e57600080fd5b6132a6612d25565b8235828111156132b557600080fd5b6132c189828601612d4f565b8252506020830135828111156132d657600080fd5b6132e289828601612d4f565b6020830152506040830135828111156132fa57600080fd5b61330689828601612d4f565b604083015250606083013560608201526080830135608082015260a083013560a082015260c083013560c082015260e083013560e0820152610100915061334e828401612ff6565b828201526101209150613362828401612ff6565b828201526101409150613376828401612ff6565b828201528093505050509250925092565b600181811c9082168061339b57607f821691505b6020821081036133bb57634e487b7160e01b600052602260045260246000fd5b50919050565b634e487b7160e01b600052601160045260246000fd5b6000600182016133e9576133e96133c1565b5060010190565b601f82111561343657600081815260208120601f850160051c810160208610156134175750805b601f850160051c820191505b8181101561088457828155600101613423565b505050565b815167ffffffffffffffff81111561345557613455612d0f565b613469816134638454613387565b846133f0565b602080601f83116001811461349e57600084156134865750858301515b600019600386901b1c1916600185901b178555610884565b600085815260208120601f198616915b828110156134cd578886015182559484019460019091019084016134ae565b50858210156134eb5787850151600019600388901b60f8161c191681555b5050505050600190811b01905550565b6000825161350d818460208701612c2a565b9190910192915050565b602080825260149082015273436861696e20646f65736e27742065786973747360601b604082015260600190565b60208082526026908201527f436861696e4944206d75737420626520646966666572656e7420746f2050726f604082015265191d58dd125160d21b606082015260800190565b60208082526018908201527f696e76616c696420726563656976657220616464726573730000000000000000604082015260600190565b6020808252600c908201526b696e76616c69642074696d6560a01b604082015260600190565b6001600160a01b0385811682528416602082015260806040820181905260009061361490830185612c4e565b905082606083015295945050505050565b808201808211156113a4576113a46133c1565b6001600160a01b038416815260606020820181905260009061365c90830185612c4e565b9050826040830152949350505050565b6001600160a01b038516815260806020820181905260009061369090830186612c4e565b82810360408401526136a28186612c4e565b9150508260608301529594505050505056fea2646970667358221220762a507d9609ffafe08f8d54ecefb34db6eea7500faaaaf7c9d0032496d1f61064736f6c63430008130033",
  "immutableReferences": {},
  "source": "// SPDX-License-Identifier: MIT\npragma solidity 0.8.19;\n\nimport \"./SChainData.sol\";\n\ncontract SChain is SChainData {\n    function partnerRegistration(\n        uint256 _categoryId,\n        string memory _name,\n        string memory _location,\n        string memory _url,\n        string memory _email,\n        uint256 _phoneNumber\n    ) public {\n        partnerCount++;\n        partners[msg.sender].id = partnerCount;\n        partners[msg.sender].categoryId = _categoryId;\n        partners[msg.sender].name = _name;\n        partners[msg.sender].location = _location; \n        partners[msg.sender].url = _url; \n        partners[msg.sender].email = _email;\n        partners[msg.sender].phoneNumber = _phoneNumber;\n        partners[msg.sender].partnerAddress = msg.sender;\n        partners[msg.sender].isPartner = true;\n\n        if (_categoryId == 0) {\n            partners[msg.sender].category = \"Farmer\";\n            farmers.push(msg.sender);\n        } else if (_categoryId == 1) {\n            partners[msg.sender].category = \"Transporter\";\n            transporters.push(msg.sender);\n        } else if (_categoryId == 2) {\n            partners[msg.sender].category = \"Distributor\";\n            distributors.push(msg.sender);\n        } else if (_categoryId == 3) {\n            partners[msg.sender].category = \"Retailer\";\n            retailers.push(msg.sender);\n        } else {\n            partners[msg.sender].category = \"Unknown\";\n            revert(\"Unknow partner category\");\n        }\n    }\n\n    function productRegistration(\n        string memory _chainID,\n        string memory _productID,\n        Product memory _product\n    ) public onlyFarmer {\n        require(!isChain(_chainID), \"Chain already exists\");\n        require(\n            keccak256(abi.encodePacked(_chainID)) != keccak256(abi.encodePacked(_productID)),\n            \"ChainID must be different to ProductID\"\n        );\n\n        _isChain[_chainID] = true;\n        products[_chainID][_productID] = _product;\n\n        uint256 _numberOfChains = numberOfChains;\n        numberOfChains = _numberOfChains + 1;\n        listOfChainIds.push(_chainID);\n        farmerIds[msg.sender].chainIds.push(_chainID);\n        farmerIds[msg.sender].productIds.push(_productID);\n        chainProductIds[_chainID].push(_productID);\n        chains[_chainID].push(_product);\n\n        address farmer = products[_chainID][_productID].stakeholderAddress;\n        address receiver = products[_chainID][_productID].receiverAddress;\n        address transporter = products[_chainID][_productID].transporterAddress;\n        uint256 harvestingTime = products[_chainID][_productID].harvestingTime;\n        uint256 packagingTime = products[_chainID][_productID].packagingTime;\n        uint256 departureTime = products[_chainID][_productID].departureTime;\n\n        require(farmer == msg.sender && isPartner(farmer), \"invalid farmer address\");\n        require(isPartner(transporter), \"invalid transporter address\");\n        require(isPartner(receiver), \"invalid receiver address\");\n        require(\n            harvestingTime < packagingTime && packagingTime < departureTime,\n            \"invalid time\"\n        );\n\n        emit ProductRegistered(farmer, _chainID, block.timestamp);\n    }\n\n    function ProductTransportation(\n        string memory _chainID,\n        string memory _productID,\n        Product memory _product\n    ) public onlyTransporter {\n        require(isChain(_chainID), \"Chain doesn't exists\");\n        require(\n            keccak256(abi.encodePacked(_chainID)) != keccak256(abi.encodePacked(_productID)),\n            \"ChainID must be different to ProductID\"\n        );\n\n        products[_chainID][_productID] = _product;\n\n        transporterIds[msg.sender].chainIds.push(_chainID);\n        transporterIds[msg.sender].productIds.push(_productID);\n        chainProductIds[_chainID].push(_productID);\n        chains[_chainID].push(_product);\n\n        address transporter = products[_chainID][_productID].stakeholderAddress;\n        address receiver = products[_chainID][_productID].receiverAddress;\n        uint256 departureTime = products[_chainID][_productID].departureTime;\n        uint256 receivingTime = products[_chainID][_productID].receivingTime;\n\n        require(transporter == msg.sender && isPartner(transporter), \"invalid transporter address\");\n        require(isPartner(receiver), \"invalid receiver address\");\n        require(\n            receivingTime < departureTime,\n            \"invalid time\"\n        );\n\n        emit ProductTransported(transporter, receiver, _chainID, block.timestamp);\n    }\n\n    function productDistribution(\n        string memory _chainID,\n        string memory _productID,\n        Product memory _product \n    ) public onlyDistributor {\n        require(isChain(_chainID), \"Chain doesn't exists\");\n        require(\n            keccak256(abi.encodePacked(_chainID)) != keccak256(abi.encodePacked(_productID)),\n            \"ChainID must be different to ProductID\"\n        );\n\n        products[_chainID][_productID] = _product;\n\n        distributorIds[msg.sender].chainIds.push(_chainID);\n        distributorIds[msg.sender].productIds.push(_productID);\n        chainProductIds[_chainID].push(_productID);\n        chains[_chainID].push(_product);\n\n        address distributor = products[_chainID][_productID].stakeholderAddress;\n        address receiver = products[_chainID][_productID].receiverAddress;\n        uint256 departureTime = products[_chainID][_productID].departureTime;\n        uint256 receivingTime = products[_chainID][_productID].receivingTime;\n\n        require(distributor == msg.sender && isPartner(distributor), \"invalid distributor address\");\n        require(isPartner(receiver), \"invalid receiver address\");\n        require(\n            receivingTime < departureTime,\n            \"invalid time\"\n        );\n\n        emit ProductDistributed(distributor, receiver, _chainID, block.timestamp);\n    }\n\n    function ReailerProduct(\n        string memory _chainID,\n        string memory _productID,\n        Product memory _product \n    ) public onlyRetailer {\n        require(isChain(_chainID), \"Chain doesn't exists\");\n        require(\n            keccak256(abi.encodePacked(_chainID)) != keccak256(abi.encodePacked(_productID)),\n            \"ChainID must be different to ProductID\"\n        );\n\n        products[_chainID][_productID] = _product;\n\n        retailerIds[msg.sender].chainIds.push(_chainID);\n        retailerIds[msg.sender].productIds.push(_productID);\n        chainProductIds[_chainID].push(_productID);\n        chains[_chainID].push(_product);\n\n        address retailer = products[_chainID][_productID].stakeholderAddress;\n        uint256 receivingTime = products[_chainID][_productID].receivingTime;\n        uint256 cookedTime = products[_chainID][_productID].cookedTime;\n\n        require(retailer == msg.sender && isPartner(retailer), \"invalid retailer address\");\n        require(\n            receivingTime < cookedTime,\n            \"invalid time\"\n        );\n\n        emit ProductCooked(retailer, _chainID, _productID, block.timestamp);\n    }\n}",
  "sourcePath": "/Users/sam/Documents/Projects/AGREO/agreo/Dapp/contracts/SChain.sol",
  "compiler": {
    "name": "solc",
    "version": "0.8.19+commit.7dd6d404.Emscripten.clang"
  },
  "schemaVersion": "3.4.9",
  "updatedAt": "2023-04-07T17:46:32.717Z",
  "networkType": "ethereum",
  "devdoc": {
    "kind": "dev",
    "methods": {},
    "version": 1
  },
  "userdoc": {
    "kind": "user",
    "methods": {},
    "version": 1
  }
}